:020000040800F2
:10000000D80B002029020008F7230008911E0008E1
:10001000F52300080B050008992A000800000000DD
:10002000000000000000000000000000AB250008F8
:100030002D06000800000000A9250008AD250008D5
:10004000430200084302000843020008430200087C
:10005000430200084302000843020008430200086C
:10006000430200084302000843020008430200085C
:10007000430200084302000843020008430200084C
:100080000D0500084302000843020008430200086F
:10009000430200084302000843020008430200082C
:1000A000430200084302000843020008430200081C
:1000B000430200084302000843020008430200080C
:1000C00043020008430200084302000843020008FC
:1000D00043020008430200088D2A0008430200087A
:1000E00043020008430200084302000843020008DC
:1000F00043020008430200084302000843020008CC
:1001000043020008430200084302000843020008BB
:1001100043020008430200084302000843020008AB
:10012000430200084302000843020008430200089B
:10013000430200084302000843020008430200088B
:10014000430200084302000843020008430200087B
:10015000430200084302000843020008430200086B
:10016000430200084302000843020008430200085B
:100170004302000843020008430200080000000098
:10018000430200084302000800F002F800F03CF8C7
:100190000AA090E8000C82448344AAF10107DA45E2
:1001A00001D100F031F8AFF2090EBAE80F0013F0F8
:1001B000010F18BFFB1A43F001031847E049000084
:1001C000004A0000103A24BF78C878C1FAD8520714
:1001D00024BF30C830C144BF04680C6070470000C1
:1001E0000023002400250026103A28BF78C1FBD840
:1001F000520728BF30C148BF0B6070471FB504F0DD
:10020000B2FC1FBD10B510BD00F046F91146FFF756
:10021000F5FF02F05DFF00F064F903B4FFF7F2FFB1
:1002200003BC00F06BF9000009488047094800470B
:10023000FEE7FEE7FEE7FEE7FEE7FEE7FEE7FEE796
:10024000FEE7FEE704480549054A064B70470000F3
:100250004526000889010008D8050020D80B002099
:10026000D8070020D807002053EA020C00F069806C
:100270002DE9F04B4FF00006002B1FBFB3FA83F5BA
:1002800003FA05F424FA05F65E4012BF1643B2FAEB
:1002900082F502FA05F4C5F120051EBF22FA05FC1D
:1002A00044EA0C04203556EA044C4FEA144418BFC3
:1002B000641C4FF000084FF00009904271EB030CF2
:1002C00039D3002919BFB1FA81F701FA07F6B0FA5C
:1002D00080F700FA07F6C7F120071EBF20FA07FCD7
:1002E00046EA0C062037B6FBF4FCA7EB0507103FE7
:1002F00007F01F0BCBF120060CFA0BFB2CFA06F6CD
:1003000044BFB3460026202FA4BF5E464FF0000B2B
:100310005BEA060C08BF4FF0010B19EB0B09ABFBB6
:10032000027C48EB0608C01B06FB02CC0BFB03CC8F
:1003300071EB0C01C1E70B46024641464846BDE859
:10034000F08B13B54FF000004FF00001AFF30080C9
:10035000BDE81C407047032A40F2308010F0030CC7
:1003600000F0158011F8013BBCF1020F624498BF08
:1003700011F801CB00F8013B38BF11F8013BA2F1A5
:10038000040298BF00F801CB38BF00F8013B11F020
:10039000030300F02580083AC0F0088051F8043BC0
:1003A000083A51F804CBA0E80810F5E7121D5CBF2D
:1003B00051F8043B40F8043BAFF30080D20724BF60
:1003C00011F8013B11F801CB48BF11F8012B24BFF4
:1003D00000F8013B00F801CB48BF00F8012B704743
:1003E00010B5203AC0F00B80B1E81850203AA0E8D0
:1003F0001850B1E81850A0E81850BFF4F5AF5FEA04
:10040000027C24BFB1E81850A0E8185044BF18C9B6
:1004100018C0BDE810405FEA827C24BF51F8043B5D
:1004200040F8043B08BF7047D20728BF31F8023BB1
:1004300048BF11F8012B28BF20F8023B48BF00F845
:10044000012B70474FF0000200B5134694469646C4
:10045000203922BFA0E80C50A0E80C50B1F12001D7
:10046000BFF4F7AF090728BFA0E80C5048BF0CC085
:100470005DF804EB890028BF40F8042B08BF7047E3
:1004800048BF20F8022B11F0804F18BF00F8012B55
:100490007047704770477047754600F02BF8AE46BE
:1004A00005006946534620F00700854618B020B580
:1004B000FFF7C8FEBDE820404FF000064FF00007F0
:1004C0004FF000084FF0000B21F00701AC46ACE8FC
:1004D000C009ACE8C009ACE8C009ACE8C0098D4669
:1004E000704710B50446AFF300802046BDE81040C9
:1004F000FFF793BE0048704774050020014918209B
:10050000ABBEFEE7260002007047FEE7014800F0A0
:10051000EBB800001405002001681823CAB2103A95
:10052000B2FBF3F2054B6FF30901032A9B5CC36531
:1005300000D9091D81650846704700007A4B000804
:1005400010B5014600208B698A6A4FF0C07453B120
:10055000B3F5005F15D072B1012A0CD0022A0AD07F
:10056000032A09D104E01AB1012A06D0022A03D1D4
:10057000C96AC90100D5012010BDC96AA142FAD0DB
:1005800010BD002AF7D0012AF2D0022AF3D0032AA4
:10059000F3D010BD30B50468256825F480252560AA
:1005A000046863608368402B036803D09960006827
:1005B000C26030BD9A600068C16030BD0E480168FD
:1005C00021F080710160016841F0807101600B4889
:1005D000016821F001010160016841F00101016041
:1005E0000021416000BF00BF00BF406808B100208B
:1005F0007047012070470000FCED00E0001000E0B3
:1006000031B5084C656800F05DFF0749B0FBF1F0BB
:1006100000994143081A00916168491B8142FBD34C
:1006200038BD0000001000E040420F00704772B675
:10063000FEE72DE9F0410446876D00F0E3FA064637
:1006400094F835000025022806D08020606584F8E3
:1006500034500120BDE8F0812068016821F01601C6
:1006600001602068416921F080014161206C08B976
:10067000A06C20B12068016821F0080101602068A9
:10068000016821F0010101600CE000F0BBFA801B61
:10069000052807D920206065032084F8350084F8F8
:1006A0003450D7E720680068C007EED194F85C109A
:1006B0003F208840B860012084F8350084F8345029
:1006C0000020C7E790F83510022903D0802141654A
:1006D00001207047052180F835100068016821F07D
:1006E00001010160002070472DE9F84304464FF0F6
:1006F0000009CDF8009063484FF41651A56D0068CD
:10070000B0FBF1F72E6894F85C10082000FA01F1B4
:1007100031420FD021680A6852070BD50A6822F0CF
:1007200004020A6094F85C108840A860606D40F094
:100730000100606594F85C104FF0010808FA01F0C0
:10074000304208D021684969090604D5A860606D67
:1007500040F00200606594F85C100420884030424C
:1007600008D021680968890704D5A860606D40F049
:100770000400606594F85C1010208840304218D066
:1007800021680968090714D5A86020680168490331
:1007900004D50068000308D5A16C07E00168C9050D
:1007A00003D4016821F008010160216C09B12046E1
:1007B000884794F85C1020208840304231D021686E
:1007C0000968C9062DD5A86094F835000528206869
:1007D000016806D0490347D5006800031DD4616C49
:1007E0001CE021F0160101602068416921F08001C0
:1007F0004161206C08B9A06C20B12068016821F02B
:100800000801016094F85C103F208840A86084F8DB
:10081000358084F83490216D1FE0E16B09B12046EA
:100820008847606D00282BD0606DC00714D005206C
:1008300084F835002068016821F00101016000980A
:10084000401C0090B84203D820680068C007F6D169
:1008500084F8358084F83490E16C002910D001B020
:100860002046BDE8F04308470168C905D5D40168B2
:1008700021F01001016084F8358084F83490CCE7D1
:10088000BDE8F883940000202DE9F041044600F013
:10089000B9F906465CB1022084F83500002584F8D9
:1008A00034502068016821F0010101600DE0012051
:1008B000BDE8F08100F0A6F9801B052805D92020AD
:1008C0006065032084F83500F2E720680068C007FF
:1008D000F0D12268116820480140D4E9010318438F
:1008E000D4E903363343184363691843A3691843B3
:1008F000E3691843236A18430843616A042903D152
:10090000D4E90B1319430843106020684069666AF4
:1009100020F0070130460E43012704280CD1A06ABD
:100920000643E06A40B12046FFF70AFE20B14020AE
:10093000606584F83570BAE7206846612046FFF7A5
:10094000EBFD94F85C203F2191408160656584F85F
:1009500035700020ACE700003F8010F02DE9F04139
:100960000446866D90F83400002501280DD0012042
:1009700084F8340094F835700020012F07D084F8F3
:10098000340002252846BDE8F0810220FBE702275B
:1009900084F8357060652046FFF7FCFD94F85C1024
:1009A0003F208840B0602068016841F01601016076
:1009B000206C20B12068016841F0080101602068C6
:1009C000016841F001010160DCE7000070B50446F8
:1009D00000F018F90546601C02D004480078044471
:1009E00000F010F9401BA042FAD370BD880000202F
:1009F0002DE9F84FDFF8BCA10022012503264FF0B6
:100A00000F090AF1040BAAF1040E00BF0B6805FAE6
:100A100002F42340A34270D10F7907F00307012F9E
:100A200001D0022F16D187684FEA420806FA08FC67
:100A300027EA0C07D1F80CC00CFA08FC4CEA070CAA
:100A4000C0F808C04768A7430C79C4F30014944069
:100A50003C4344600C79E443A4070AD0C4684FEADD
:100A6000420C06FA0CF7BC438F6807FA0CF72743D1
:100A7000C7600C7904F00304022C12D1D40800EBF7
:100A8000840CDCF820405707FF0E09FA07F824EA27
:100A90000804D1F8108008FA07F848EA0408CCF8EE
:100AA000208004684FEA420C06FA0CF7BC430F7929
:100AB00007F0030707FA0CF7274307604C6814F4A4
:100AC000403F70D03C4C276847F48047276024683B
:100AD00022F0030704F480440094384C07EB040C24
:100AE000DCF8084897074FEA177809FA08F7BC437B
:100AF000334FB84202D1002724E054E0314FB842CE
:100B000001D101271EE0304FB84201D1022719E080
:100B10002E4FB84201D1032714E02D4FB84201D126
:100B200004270FE02B4FB84201D105270AE02A4FD6
:100B3000B84201D1062705E0284FB84201D1072766
:100B400000E0082707FA08F72743CCF80878DAF816
:100B500000405746D1F804C09C435FEACC2C00D536
:100B60001C433C60DBF800405F46D1F804C09C4366
:100B70005FEA8C2C00D51C433C60DEF800407746D1
:100B8000D1F804C09C435FEA8C3C00D51C433C6018
:100B9000084F083F3C68D1F804C09C435FEACC3C56
:100BA00000D51C433C60521C102AFFF42FAFBDE857
:100BB000F88F0000083C01404438024000300140FA
:100BC000000002400004024000080240000C024005
:100BD000001002400014024000180240001C0240B5
:100BE0000069084000D001207047426921EA0203F1
:100BF0000A4043EA0241816170470AB1816170474E
:100C00000904FBE701488068704700008800002065
:100C100090F83C10012912D0012100F83C1F24213A
:100C2000417050F83C1CCA6822F00C0242F00402E9
:100C3000CA602021417000210170084670470220DF
:100C4000704790F83C10012912D0012100F83C1F98
:100C50002421417050F83C1CCA6822F00C0242F07A
:100C60000802CA60202141700021017008467047C7
:100C70000220704770B5040004D094F83D000025B0
:100C800010B106E0012070BD84F83C50204600F011
:100C9000A3FF242084F83D002068C16821F400519E
:100CA000C160204601F0E6FD2068016921F4904111
:100CB00001612068416921F0220141612068416998
:100CC00041F0080141612068C16841F40051C160F0
:100CD0002564202084F83D0084F83E00002070BD8B
:100CE00070B5040025D094F83D00002520B984F8A3
:100CF0003C50204600F03EFA242084F83D00206855
:100D0000016821F0010101602068016841F400419F
:100D100001602068016821F40041016000F0D8FB07
:100D20004D4A6168914201D84C4900E04C498842E3
:100D300001D2012070BD4B492368B0FBF1F15E6820
:100D400026F03F060E435E606368934206D94FF477
:100D5000967359434FF47A73B1FBF3F12368491C3E
:100D60001E6A26F03F06314319626168914210D82D
:100D70004900401EB0FBF1F2521CC2F30B02042AE0
:100D800001D2042022E0B0FBF1F0401CC0F30B00C4
:100D90001CE0A268F2B301EBC10303EB0116431E92
:100DA000B3FBF6F35B1C43F480431B0549D092B3BD
:100DB00001EBC10202EB0111401EB0FBF1F0401C3F
:100DC000C0F30B0040F4804040F400402168CA6941
:100DD0004CF6FF739A431043C861D4E907100143EE
:100DE0002068026822F0C00211430160D4E90301C7
:100DF00001432068826848F2FF339A4311438160BF
:100E0000D4E9050108432168CA6822F0FF021043B3
:100E1000C86001E00EE016E02068016841F00101C1
:100E200001602564202084F83D00256384F83E504D
:100E3000002070BD01EB4106431EB3FBF6F35B1CC3
:100E4000B3E70120C2E701EB4101401EB0FBF1F026
:100E5000401CC0F30B00B7E7A086010080841E0091
:100E600000093D0040420F002DE9F84F1F46904613
:100E70008A460446DDF82890FFF7C4FE054694F83C
:100E80003D00202875D1192301226C492046009588
:100E900001F090F90028F5D194F83C00012868D0C1
:100EA000012084F83C0020680168C90703D101686B
:100EB00041F0010101602068016821F400610160D6
:100EC000222084F83D00102084F83E00002626648D
:100ED000C4F824806785608D20855948E0622B46E0
:100EE0004A465146204601F07BF8002878D1208DF3
:100EF000544F68B1012814D002282068016816D028
:100F000041F480610160206841698069009087E058
:100F10002068416981690091016841F400710160B4
:100F20007EE02068016821F480610160F0E721F42F
:100F3000806101602068016841F40061E2E70328F4
:100F400048D801280AD0022814D04B46002239463E
:100F50002046009501F02EF9D8BB27E02A464946E5
:100F6000204601F0A6F9A0BB20680069616A0870FC
:100F70004DE061E04B46002239462046009501F0E5
:100F800019F930BB2068016841F4007101602068E4
:100F90000069616A0870606A401C6062218D491EA8
:100FA0002185618D491E618521682EE020680168D8
:100FB00021F48061016020680069616A0870606ADC
:100FC000401C6062208D401E2085608D401E608523
:100FD000D0E705E02A464946204601F06AF910B1FB
:100FE0000120BDE8F88F20680069616A0870606AB6
:100FF000401C6062218D491E2185618D491E6185DD
:1010000021684A69D24352070AD409690170606AAB
:10101000401C6062208D401E2085608D401E6085D2
:10102000208D00288BD1202084F83D0084F83E607C
:1010300084F83C600020D4E70220D2E702001000D0
:101040000000FFFF040001002DE9F84F1F46904605
:101050008A460446DDF82890FFF7D4FD054694F84B
:101060003D0020287FD119230122404920460095C8
:1010700001F0A0F8002876D194F83C00012872D045
:10108000012084F83C0020680168C90703D1016889
:1010900041F0010101602068016821F400610160F4
:1010A000212084F83D00102084F83E0000262664AC
:1010B000C4F824806785608D20852D48E0622B462A
:1010C0004A465146204601F001F890B9206841692E
:1010D0008069009036E02A464946204601F01CF916
:1010E00050B1206C042804D12068016841F40071DB
:1010F00001600120BDE8F88F606A2168007808610E
:10110000606A401C6062618D491E6185218D491EA7
:1011100089B2218522685369DB435B070BD451B147
:1011200000781061606A401C6062608D401E6085BE
:10113000208D401E20852A464946204601F014F89D
:101140000028CED1208D0028C5D154F83D0B016870
:1011500041F400710160202004F81E09E6776677EB
:101160000020C7E7FFE70220C4E7000002001000EC
:101170000000FFFF2DE9F04186B0044614216846C7
:10118000FFF760F92F4A2168DFF8BC8000242E4861
:1011900012250326042708F1100891421CD101688A
:1011A00041F002010160006802AA00F0020005900F
:1011B000B002CDE9000582E8D00069462348FFF778
:1011C00017FCD8F8001041F48001C8F80010D8F8D6
:1011D000000000F4800031E01D4A91422FD10168E7
:1011E00041F004010160016801F00401059101680A
:1011F00041F0010101600068694600F001000590BE
:101200005015CDE9000502AA124882E8D000FFF788
:10121000EFFB4FF48070CDE9000502AA694682E831
:10122000D0000D48FFF7E4FBD8F8001041F40001AE
:10123000C8F80010D8F8000000F40000059006B0CF
:10124000BDE8F08100580040303802400004024000
:10125000005C004000080240000002400248816833
:101260000278114481607047880000200B4810B557
:10127000016841F400710160016841F4806101601E
:10128000016841F480710160032000F06FF80F20C5
:1012900000F006F800F024F8002010BD003C0240E9
:1012A00070B50D4D04464FF47A712878B1FBF0F01B
:1012B0000A490968B1FBF0F000F012FB48B9102CA4
:1012C00007D200222146501E00F030F800206C604A
:1012D00070BD012070BD0000880000209400002037
:1012E0000A4808B5016841F480410160006800F4D3
:1012F000804000900548001F016841F08051016066
:10130000006800F08050009008BD000044380240A2
:10131000002809DB00F01F020121914040098000F4
:1013200000F1E020C0F8001170470000F0B40E4B4F
:101330001B680C46C3F30223C3F10705042D00D933
:101340000425191D072901D2002300E0DB1E012618
:1013500006FA05F1491E214099409E40761E16402E
:101360003143F0BC01F099BB0CED00E0064900F000
:10137000070208684FF6FF03184040EA0220034ABC
:1013800010430860704700000CED00E00000FA0513
:101390002DE9F0470E46050065D0DFF81481D8F836
:1013A0000000F7B200F00700B04207D288F80070E2
:1013B000D8F8000000F00700B04254D128683D4C36
:1013C000810712D5400703D5206840F4E050206023
:1013D0002878000703D5206840F46040206020682A
:1013E000A96820F0F000084320602878C0072DD0BD
:1013F000304968680839012812D0022813D0032820
:1014000011D00968890700292DDA216821F003012C
:1014100001432160FFF7F6FB814641F2883A0EE076
:1014200009688903EFE709688901ECE7FFF7EAFB40
:10143000A0EB0901514502D90320BDE8F0872068DF
:10144000696800F00C00B0EB810FEFD1D8F8001004
:10145000404601F00701B14207D90770006800F06B
:101460000700B04201D00120E7E72878400705D502
:101470002068E96820F4E0500843206028780007DD
:1014800006D52068296920F4604040EAC100206048
:1014900000F03EF82168084AC1F30311515CC840CE
:1014A0000649086006480068FFF7FAFE0020C4E716
:1014B000003C024008380240824B000894000020A3
:1014C0008C00002001480068704700009400002054
:1014D0000448054900680968044AC1F38221515C47
:1014E000C84070479400002008380240924B000822
:1014F0000448054900680968044AC1F34231515C57
:10150000C84070479400002008380240924B000801
:10151000154810B5006810F00C02144813D0144997
:10152000042A0FD0082A0ED10F4C241F22682368EA
:1015300002F03F025B0207D52068C0F38810A0FBD1
:10154000010106E0084610BD2168C1F38811A1FB26
:1015500000010023FEF788FE2168C1F30141491C08
:101560004900B0FBF1F010BD083802400024F4003F
:1015700040787D012DE9F84F04006ED02078DFF827
:101580004C93C007A9F104054AD009F10400016891
:10159000C1F38101012908D00068C0F3810002284D
:1015A0000AD1D9F80000400206D52868800337D553
:1015B00060680028E1D033E06068B0F5803F10D06B
:1015C000B0F5A02F286810D020F48030286028685B
:1015D00020F4802028606068A8B1FFF713FB06465E
:1015E0000DE0286840F48030F4E740F48020286063
:1015F000F7E700BFFFF706FB801B642873D8286855
:101600008003F7D50CE0FFF7FDFA064605E000BFC2
:10161000FFF7F8FA801B6428F0D828688003F7D415
:101620002078DFF8AC8280074FF0000A3ED5A7484B
:10163000001D016811F00C0F08D00068C0F3810094
:1016400002280BD1D9F80000400207D4286880078F
:1016500016D5E068012800D112E033E1E068B8B1A6
:101660000120C8F80000FFF7CDFA064605E000BFEC
:10167000FFF7C8FA801B0228C0D828688007F7D572
:101680002868216920F0F80040EAC10028600DE0D8
:10169000C8F800A0FFF7B6FA064604E0FFF7B2FA72
:1016A000801B02281FD828688007F7D420780007FD
:1016B00022D5864F87486169703771B10121016079
:1016C000FFF7A0FA064604E0FFF79CFA801B022809
:1016D00009D838688007F7D50EE0C0F800A0FFF7FA
:1016E00091FA064605E082E0FFF78CFA801B02289B
:1016F0007DD838688007F7D42078400768D5DFF8B0
:10170000CCB100270BF13C0BDBF80000C0000BD480
:10171000DBF8001041F08051CBF80010DBF800003E
:10172000012700F0805000906B4E3068C00510D447
:10173000306840F480703060FFF764FA009005E094
:10174000FFF760FA0099401A022850D83068C005A7
:10175000F6D55E4EA0686C3601280FD0052830689B
:1017600010D020F001003060306820F004003060BC
:10177000A068B8B1FFF746FA00900FE0306840F07B
:101780000100F4E740F004003060F7E7FFF73AFAB1
:101790000099411A41F28830814266D8306880074A
:1017A000F4D50EE0FFF72EFA009007E0FFF72AFAD3
:1017B0000099411A41F28830814256D8306880073A
:1017C000F4D42FB1DBF8001021F08051CBF80010D9
:1017D000A069C8B33D49091D0968C1F38101022907
:1017E0004AD00228504607D0C8F8600000E03CE02C
:1017F000FFF708FA04463BE04746C8F86000FFF7E9
:1018000001FA064605E000BFFFF7FCF9801B02283D
:101810002BD828688001F7D4D4E907010843A16ACE
:101820002E4A490802EB0141626A41EA82110843EB
:1018300094F82C1040EA0161C9F8001001203866C4
:10184000FFF7E0F9044606E03EE000BFFFF7DAF9F3
:10185000001B022809D828688001F7D534E000BFB2
:10186000FFF7D0F9001B022802D90320BDE8F88F4A
:1018700028688001F4D427E00128F7D0D9F80000C7
:10188000E26900F4800191421CD1226A00F03F011C
:10189000914217D147F6C071626A0140B1EB821FD5
:1018A00010D1A26A4FF0FF3300F4403103EB520233
:1018B000B1EB024F06D194F82C1000F07060B0EB41
:1018C000016F01D00120D1E70020CFE704380240AA
:1018D00000004742800E4742007000400000FFFFBA
:1018E00010B5401EB0F1807F01D3012010BD4FF034
:1018F000E02460610F21601701F0CFF80020A061A3
:1019000007202061002010BD70477047F8B50168BE
:1019100004460868CA684B6910F00F0F4FF00005C5
:1019200059D003F0010602F49077374365D0C10720
:1019300005D0D10503D5216C41F001012164410797
:1019400005D5D90703D0216C41F00201216481073C
:1019500005D5D90703D0216C41F0040121640107AA
:1019600007D502F02001314303D0216C41F008017A
:101970002164216C00293AD0800604D5900602D556
:10198000204600F017FF20684069216CC0F38010EA
:10199000090700D460B3204600F0D7FE20684069F4
:1019A000400621D52068143050E8001F21F0400186
:1019B00040E80012002AF5D1A06BA8B16C4901657E
:1019C000A06BFEF77FFE002811D0A06B016D01B067
:1019D000BDE8F040084783060FD593060DD5204695
:1019E000BDE8F84000F0E6BE2046FFF78EFFF8BDE8
:1019F0002046FFF78AFF2564F8BD266B2023012EC1
:101A000079D1C60677D5D60675D50868486800909E
:101A10004869400640D5A16B086840680004000C86
:101A2000EAD0A28D8242E7D9E085C869B0F5807F0F
:101A30002DD020680C3050E8001F21F4807140E860
:101A40000012002AF5D12068143050E8001F21F060
:101A5000010140E80012002AF5D12068143050E856
:101A6000001F21F0400140E80012002AF5D184F85F
:101A70003E30256320680C3050E8001F21F0100133
:101A800040E80012002AF5D1A06BFEF7D2FDA08D30
:101A9000E18D401A81B229E0A08DE18D401A81B21A
:101AA000E08D0028A8D00029A6D020680C3050E88E
:101AB000002F22F4907240E80026002EF5D1206815
:101AC000143050E8002F22F0010240E80026002EDA
:101AD000F5D184F83E30256320680C3050E8002FA3
:101AE00022F0100240E80023002BF5D12046FFF73A
:101AF0000BFFF8BDFFE705062BD5150629D594F891
:101B00003D002128F5D1A068B0F5805F01D12069A2
:101B1000B0B1206A411C2162216800784860E08CE5
:101B2000401E0004000CE084E3D12068C16821F06D
:101B30008001C1602068C16841F04001C160D8E700
:101B4000206A0088C0F308004860206A801C206278
:101B5000E5E74006CDD55006CBD5CA68204622F031
:101B60004002CA6084F83D3000F091F9C1E70000FE
:101B70005526000870B5040004D094F83D000025F7
:101B800010B106E0012070BD84F83C50204600F002
:101B900023F8242084F83D002068C16821F4005116
:101BA000C160204600F066FE2068016921F4904182
:101BB00001612068416921F02A0141612068C16802
:101BC00041F40051C1602564202084F83D0084F870
:101BD0003E00002070BD0000F0B587B0064614211D
:101BE0006846FEF72FFC3449324F346800253248EE
:101BF00010390322314BBC421DD1046844F4002447
:101C00000460006800F400200590086840F00100BE
:101C100008600868694600F0010005900120009006
:101C20001220CDE901050820CDE903201846FEF772
:101C3000DFFE07B0F0BD224FBC42FAD1046844F485
:101C400000340460006800F400300590086840F03B
:101C5000010008600868694600F0010005900C204A
:101C600000900220CDE901050720CDE903201846A8
:101C7000FEF7BEFE144C134820604FF00060C4E92C
:101C800001054014C4E903506561A561E561256261
:101C900020466562FEF7F8FD08B1FEF7C8FCB463A4
:101CA000002211462620A663FFF740FB2620FFF7FF
:101CB0002FFBBEE7004C00404038024000000240CD
:101CC0000044004088600240140500202DE9F84FD0
:101CD000044690F83E009A4616460D46202853D1F9
:101CE000FDB1F6B194F83C0001284DD0012084F8F4
:101CF0003C0000272764222084F83E002763FEF77B
:101D000081FFA6858146E685A0684FF4805840454E
:101D100001D1206940B12E465FF0000584F83C7087
:101D200027E00120BDE8F88F0026F7E74B460022A8
:101D300020212046CDF800A000F06CFE08B1032061
:101D4000F0E726B1A06840451BD038B108E0206814
:101D50004068C0F3080025F8020B07E0206980B155
:101D60002068406800F07F0006F8010BE08D401EFF
:101D7000E085E08D0028D9D1202084F83E000020A5
:101D8000D0E720684068EFE70220CBE790F83E30CC
:101D9000202B0ED159B152B190F83C30012B08D014
:101DA000012380F83C300023036300F0E9BD0120EB
:101DB00070470220704700000648002181700170C2
:101DC0004171017141708171C170C171017201F085
:101DD0007FBD000008050020704700002DE9F84392
:101DE000044690F83D001F4616460D4620284CD16B
:101DF000C5B1BEB194F83C00012846D0012084F85A
:101E00003C004FF00008C4F84080212084F83D00D9
:101E1000FEF7F8FEA6848146E684A068B0F5805FF0
:101E200003D004E00120BDE8F883206928B12E46E4
:101E30005FF0000584F83C800EE00026FAE7802180
:101E4000204600F0E7FDA0B9AEB116F8010B2168FD
:101E50004860E08C401EE084E08C4B464FF000026E
:101E600000970028EBD14FF04001204600F0D2FD52
:101E700030B10320D7E735F8020BC0F30800E6E7DE
:101E8000202084F83D000020CDE70220CBE77047FA
:101E9000FEE7000070B518222DED028B86B03C499C
:101EA0006846FEF79DFA3A4D883D05F178000FC867
:101EB00001F07EFC374C1822A5F1400184ED1A0B8D
:101EC0006846FEF78DFAA5F1800606F130000FC8CE
:101ED00001F06EFC84ED100B1822A5F11801684684
:101EE000FEF77EFA583696E80F0001F061FC84EDAB
:101EF000120B182205F138016846FEF771FA05F158
:101F000028000FC801F054FC84ED160B182205F1CF
:101F100010016846FEF764FA95E80F0001F048FCEE
:101F200084ED140B182205F160016846FEF758FA9B
:101F3000503595E80F0001F03BFC84ED180B94ED53
:101F4000140B9FED158B53EC102B94ED160B51ECED
:101F5000100B02F0DDF853EC182B02F075FB9FED2F
:101F6000100B41EC180B53EC102B02F031FB0DD28F
:101F700051EC180B9FED0C0B53EC102B02F062FC94
:101F800004D2012006B0BDEC028B70BD0220F9E73F
:101F90003003002018000020000000000000E03F97
:101FA0000000000000002440000000000000F03F9E
:101FB00001684A69D24352050FD46FF480624A61C6
:101FC000002140F8301F202242738173026942F0E1
:101FD0000402026101730120704700207047000075
:101FE0002DE9F84F0446C06A1E4693460D46216807
:101FF0000A6842F480620A60082807D0012805D0E8
:1020000010F5803F02D0206B112804D120680168B0
:1020100041F4807101604FF001195B46002249468E
:102020002046009600F0C6F84FF4007840B12068D2
:102030000068C00501D5C4F840800320BDE8F88FD2
:102040002069DFF884A0B0F5804F0FD0062021680A
:1020500000EAD51747F0F000086133465A460AF106
:102060000601204600F0DAF858BB03E0E8B240F081
:1020700001001CE02168E8B2086133465A46514627
:10208000204600F0CBF8E0B92068416981690091F1
:10209000016841F4807101605B4600224946204698
:1020A000009600F087F80028C1D147F0F1002168C0
:1020B000086133465A465146204600F0AFF80028E2
:1020C000BCD00120BAE7000002000100F8B50446C8
:1020D000C06A1E460D461746082807D0012805D0BD
:1020E00010F5803F02D0206B122804D120680168CF
:1020F00041F480710160134600224FF00111204627
:10210000009600F057F840B120680068C00502D57D
:102110004FF4007020640320F8BD2069B0F5804FB3
:102120000ED00620216800EAD51040F0F0000861CA
:1021300033463A460B49204600F070F878B902E081
:1021400005F0FE0000E0E8B2216808610549334669
:102150003A46891F204600F061F80028DCD00120B3
:10216000F8BD00000800010070B516460D46044693
:102170000DE02046FFF71CFF08B1012070BD681C70
:1021800005D0FEF73FFD801BA84207D835B1206877
:102190004069C0434007ECD4002070BD002044F8E3
:1021A000300F20216173A073216941F0200121616A
:1021B0002073E2E72DE9F0471E4690460D4604469F
:1021C000C1F30747DDF8209008E0701C06D0FEF749
:1021D00019FDA0EB0900B0420FD876B12068012F9D
:1021E00018D0806925EA00000004000C14D00021FA
:1021F0004145EAD00020BDE8F087002044F8300FC8
:1022000020216173A073216941F0200121612073B5
:102210000120F0E74069E5E70121E9E72DE9F04712
:102220009A4691460E46044600254FF02008C1F319
:10223000074725E020684069C043400514D4206862
:10224000016841F40071016021686FF480604861A9
:10225000256384F83D8084F83E50206C40F00400F3
:10226000206484F83C501FE0B9F1FF3F08D0FEF72E
:10227000C9FCA0EB0A0149450CD8B9F1000F09D0FF
:102280002068012F13D0806926EA00000004000CAA
:102290000BD0CFE744F8305F84F80D80A573206938
:1022A00040F02000206125730120BDE8F0874069DF
:1022B000EAE72DE9F041002590460E460446202726
:1022C00017E04069C043C0060CD454F8301B6FF0CF
:1022D0001000486144F810596777A577206A20629A
:1022E000257717E0FEF78EFCA0EB0800B04208D877
:1022F0003EB120684169C9434906E2D40020BDE8E7
:10230000F08144F8305F6773A573206940F02000C6
:10231000206125730120F2E770B516460D4604468C
:102320000DE02046FFF744FE08B1012070BD681C97
:1023300005D0FEF767FC801BA84207D835B120689E
:102340004069C0430006ECD4002070BD002044F872
:10235000300F20216173A073216941F020012161B8
:102360002073E2E770B586B014216846FEF76AF87C
:102370001E480024016841F080010160016801F0FD
:1023800080010591016841F001010160016801F0DF
:1023900001010591016841F002010160016801F04D
:1023A00002010591016841F004010160016801F03A
:1023B00004010591016841F01001016000680C4EB4
:1023C00000F010004FF400750590002229463046B9
:1023D000FEF713FC01200095CDE901046946304663
:1023E0000394FEF705FB06B070BD000030380240D4
:1023F00000040240FEE7FEE79FED060A80ED090AB1
:1024000080ED0A0A80ED0B0A80ED0C0A80ED0D0AC2
:10241000704700000000000070B504462DED0C8BE5
:10242000F0EE608A30EE688A90ED000A20EE08DA5D
:1024300090ED0A0A30EE080A10EE100A02F022FBB4
:10244000256A41EC190B284602F01CFB41EC1A0BE3
:10245000606802F017FB9FED501B53EC112B02F04C
:10246000F3F853EC1A2B02F0EFF853EC192B02F0AF
:10247000EBF841EC190B606A02F004FB53EC192BEA
:1024800001F046FE01F012FE00EE100A84ED090A8A
:10249000D4ED070AB4EEE00AF1EE10FA06DCD4ED52
:1024A000060AB4EEE00AF1EE10FA01D2C4ED090A10
:1024B000284602F0E7FAE66841EC190B304602F0D4
:1024C000E1FA9FED37AB53EC1A2B02F0BDF853EC59
:1024D000192B01F01DFE94ED0C0A41EC1B0B38EE9C
:1024E000C00A10EE100A02F0CDFA41EC190BA068F8
:1024F00002F0C8FA53EC1A2B02F0A6F853EC192B91
:1025000002F0A2F841EC190BE06A02F0BBFA41ECD0
:102510001C0B304602F0B6FA53EC1A2B02F094F87A
:1025200041EC1A0B284602F0ADFA53EC1A2B02F0DC
:10253000BFF953EC1C2B02F087F853EC192B02F077
:10254000B7F953EC1B2B01F097FE01F0AFFD00EE45
:10255000100A84ED0B0AD4ED090A70EE8D0A30EEF4
:10256000800A84ED0D0AD4ED050AB4EEE00AF1EE1E
:1025700010FA06DCD4ED040AB4EEE00AF1EE10FA2B
:1025800001D2C4ED0D0A84ED0A8AC4ED0C8A94EDE3
:102590000D0ABDEC0C8B70BD000000000000E03F98
:1025A000000000000000004070477047FEF756BE74
:1025B00030B593B030216846FDF744FF14210CA8D4
:1025C000FDF740FF1D480025016841F08051016082
:1025D000006800F0805011901948016841F4804172
:1025E00001600068022400F48040119001200390F3
:1025F00010200490009406940820CDE90750A820EC
:10260000CDE9090404200B906846FEF7B3FF08B13A
:1026100072B6FEE70CA90F2081E831004FF4A050FC
:102620000F904FF48050109005210CA8FEF7B0FEDB
:10263000002801D072B6FEE713B030BD403802402A
:10264000007000400248016841F470010160704769
:1026500088ED00E010B5806B0021C185C184FFF7D3
:1026600054F910BD70B5846B2068406994F83D1032
:10267000C0F3C0100025212904D118B1E5842046FB
:1026800000F08AF82068406994F83E10C0F380108A
:10269000222904D118B1E585204600F056F8206CB7
:1026A00040F0100020642046FFF72FF970BD10B5F0
:1026B0000146806B09680968C9052FD40021C185CE
:1026C00001680C3151E8002F22F4807241E80023A8
:1026D000002BF5D10168143151E8002F22F00102DE
:1026E00041E80023002BF5D10168143151E8002F97
:1026F00022F0400241E80023002BF5D1202180F890
:102700003E10016B012909D101680C3151E8002FFD
:1027100022F0100241E80023002BF5D1016B0129C2
:1027200002D0FFF749FB10BD818DFFF7EDF810BD1A
:1027300010B5806B016B012902D0FFF74DFB10BD76
:10274000818D4908FFF7E0F810BD01680C3151E8B0
:10275000002F22F4907241E80023002BF5D101688C
:10276000143151E8002F22F0010241E80023002B30
:10277000F5D1016B012909D101680C3151E8002F15
:1027800022F0100241E80023002BF5D1202180F82F
:102790003E1000210163704701680C3151E8002FA1
:1027A00022F0C00241E80023002BF5D1202180F85F
:1027B0003D10704708B590F83E10222901D0022044
:1027C00008BD82684FF480539A4201D1016921B15A
:1027D000816A9A421BD04AB10AE00268816A526853
:1027E000C2F308020A80816A891C08E0026972B19A
:1027F0000268526802F07F020A70816A491C816295
:10280000C18D491E0904090CC18503D019E0026875
:102810005268F1E70168CA6822F02002CA600168C4
:10282000CA6822F48072CA6001684A6922F0010213
:102830004A61202180F83E10016B012903D0FFF787
:10284000BBFA002008BD0021016301680C3151E88A
:10285000002F22F0100241E80023002BF5D101687F
:102860000A68D20602D50A6849680091818DFFF78F
:102870004BF8E6E770B5044600680169E26821F4A8
:102880004051114301612169A068E269084361690F
:10289000114308432168CA6849F20C639A43024312
:1028A000CA6020684169A26921F440711143416105
:1028B00031492068884202D03049884202D1FEF76F
:1028C00017FE01E0FEF704FEE269002319216425EA
:1028D0003226B2F5004F626828D0A0FB0101930FA9
:1028E0009200FDF7C1FC0146B0FBF5F06FF0180255
:1028F000504301EB800006EB0010B0FBF5F000F058
:10290000F002B1FBF5F002EB0012B1FBF5F06FF055
:102910001803584301EB800006EB0010B0FBF5F004
:1029200000F00F0021681044886070BDA0FB010119
:1029300092185B41FDF798FC0146B0FBF5F00201EF
:10294000B1FBF5F06FF01803584301EB800006EB84
:10295000C000B0FBF5F000F0F80002EB4002B1FB64
:10296000F5F0584301EB800006EBC000B0FBF5F03A
:1029700000F00700D6E700000010014000140140FD
:1029800038B58162828500251346044605642220FD
:1029900084F83E00A26B1C48D063A26B1B481064F5
:1029A000A26B1B48D064A06B0A4605652168A06B2A
:1029B000091DFDF7D3FF206801684068009084F886
:1029C0003C50206948B120680C3050E8001F41F4A9
:1029D000807140E80012002AF5D12068143050E8D8
:1029E000001F41F0010140E80012002AF5D12068E3
:1029F000143050E8001F41F0400140E80012002A66
:102A0000F5D1002038BD0000AF26000831270008AE
:102A1000652600082DE9F041984617460E46044603
:102A2000069D27E0681C25D02DB1FEF7EBF8A0EB42
:102A30000800A8421ED920680C3050E8001F21F47D
:102A4000D07140E80012002AF5D12068143050E817
:102A5000001F21F0010140E80012002AF5D12020DA
:102A600084F83D0084F83E00002084F83C000320F8
:102A7000BDE8F0812068006836EA000004D000203C
:102A8000B842CFD00020F3E70120F9E70148FEF774
:102A90003DBF000094010020FEE70907090E002851
:102AA00004DB00F1E02080F80014704700F00F0014
:102AB00000F1E02080F8141D7047034610B5002097
:102AC000024604E09C5C521C2044C0B2D2B28A424E
:102AD000F8D310BD10B50023022203E0845C521C21
:102AE0002344DBB28A42F9DBD843C0B210BD10B533
:102AF0000446012100F0A4F90021204600F038F935
:102B000040F2FF31204600F001F92046BDE81040B8
:102B100040F20B2100F0C8B82DE9F0410F461D46E8
:102B200016460446012100F08BF90021204600F0F2
:102B30001FF90021204600F0E9F82A4631462046D8
:102B400000F048F93846FDF741FF2A462046BDE827
:102B5000F041002100F03EB9024B186081F82320BB
:102B6000704700001000002070B5054600F03CF8EA
:102B70000446284600F004F844EA002070BD000036
:102B80007CB515A10546D1E90001CDE9000195F814
:102B900023008DF80200082168460F35FFF79AFFE1
:102BA0000F4C8DF807002068FEF74BF80A23082227
:102BB00069462068FFF712F92068FEF729F80A2312
:102BC000082208492068FFF781F806480168296053
:102BD0004168696040797CBDFFFF00040225010067
:102BE00010000020980000207CB515A10546D1E911
:102BF0000001CDE9000195F823008DF802000821BD
:102C000068460F35FFF766FF0F4C8DF80700206808
:102C1000FEF717F80A23082269462068FFF7DEF856
:102C20002068FDF7F5FF0A23082208492068FFF70E
:102C30004DF80648016829604168696040797CBDAB
:102C4000FFFF000402240100100000209800002073
:102C50002DE9F0410D461F4690460646012100F041
:102C6000EFF80021304600F083F840F2FF342146AF
:102C7000304600F04BF83A464FF4FA71304600F017
:102C8000A9F82946304600F00FF84FF47A70FDF7A6
:102C90009DFE3A464146304600F09CF821463046BB
:102CA000BDE8F041AFF300803EB513A41CCC8DE825
:102CB0001C0090F823008DF802008DF80610080A19
:102CC0008DF8070009216846FFF704FF0D4C8DF8C9
:102CD00008002068FDF7B5FF0A230922694620682D
:102CE000FFF77CF82068FDF793FF0A2306220649C8
:102CF0002068FEF7EBFF3EBDFFFF0005031E00004E
:102D00000000000010000020980000203EB513A431
:102D10001CCC8DE81C0090F823008DF802008DF883
:102D20000610080A8DF8070009216846FFF7D2FE51
:102D30000D4C8DF808002068FDF783FF0A23092257
:102D400069462068FFF74AF82068FDF761FF0A230B
:102D5000062206492068FEF7B9FF3EBDFFFF0005C9
:102D60000308000000000000100000209800002070
:102D70003EB513A41CCC8DE81C0090F823008DF800
:102D800002008DF80610080A8DF807000921684630
:102D9000FFF7A0FE0D4C8DF808002068FDF751FFED
:102DA0000A23092269462068FFF718F82068FDF712
:102DB0002FFF0A23062206492068FEF787FF3EBD43
:102DC000FFFF0005030600000000000010000020C7
:102DD000980000203EB50B0A012A01D143F00403FC
:102DE00012A534CD8DE8340090F823008DF806103C
:102DF0008DF802008DF8073009216846FFF76AFE5A
:102E00000D4C8DF808002068FDF71BFF0A230922EE
:102E100069462068FEF7E2FF2068FDF7F9FE0A2305
:102E2000062206492068FEF751FF3EBDFFFF000560
:102E30000320000000000000100000209800002087
:102E40003EB512A41CCC8DE81C0090F823008DF830
:102E500002008DF8061009216846FFF73BFE0E4C74
:102E60008DF808002068FDF7ECFE0A230922694668
:102E70002068FEF7B3FF2068FDF7CAFE0A2306228A
:102E800006492068FEF722FF3EBD0000FFFF000557
:102E9000031800010000000010000020980000202E
:102EA00080ED040B80ED021B80ED002B704780ED60
:102EB000040B80ED021B80ED002B704770B596B0BF
:102EC00014A10646D1E900010A25144C0095CDE96C
:102ED0000101062301AA21786068FEF7B5F8009584
:102EE000102311AA21786068FDF7BEFFBDF84900E4
:102EF000ADF80C00BDF84B00ADF80E00BDF84D006C
:102F0000ADF81000382203A93046FDF724FA16B0B8
:102F100070BD000055AA11002030000008000020FC
:102F200070B5A2B025A10646D1E900010A25254CBD
:102F30000095CDE91F0106231FAA21786068FEF7DE
:102F400083F80095322312AA21786068FDF78CFF80
:102F5000322212A90DF10A00FDF7FDF99DF84C008F
:102F600029280BD1BDF84D00ADF80400BDF84F0085
:102F7000ADF80600BDF85100ADF808009DF85C0002
:102F80002A2813D1BDF85D00ADF83C00BDF85F0004
:102F9000ADF83E00BDF86100ADF84000BDF863003B
:102FA000ADF84200BDF86500ADF84400422201A929
:102FB0003046FDF7D0F922B070BD000055AA1100CF
:102FC000213100000800002030B51EA285B0D2E9F2
:102FD0000012CDE903128DF81100010A00EB102058
:102FE0001A4C8DF8121000F23F100A258DF81300CC
:102FF0000095082303AA21786068FEF725F800955C
:10300000062301AA21786068FDF72EFF9DF80400D1
:10301000552812D19DF80500AA280ED19DF806006A
:1030200011280AD19DF8070038B99DF808002E280C
:1030300003D19DF809003E2802D0032005B030BD21
:103040000020FBE755AA11022D0000000800002017
:1030500030B5194C85B019A26060D2E900120A257A
:103060000095CDE90312062303AA2178FDF7ECFFB2
:103070000095062301AA21786068FDF7F5FE9DF80A
:103080000400552812D19DF80500AA280ED19DF8FC
:10309000060011280AD19DF8070038B99DF80800EC
:1030A0002E2803D19DF809003E2802D0032005B048
:1030B00030BD0020FBE700000800002055AA1100E9
:1030C0002C3C0000014948607047000000000020CF
:1030D0002DED0A8B8EB0FEF7C9F8FFF769FAFFF7FE
:1030E00041F9F1480024016841F4001101600068D1
:1030F000224600F40010009021461020FEF716F939
:103100001020FEF705F9EA48E8490C2501604FF464
:10311000E131C0E90114C460C0E904458461C461BF
:10312000FEF728FD08B172B6FEE7E148E149EC3848
:10313000E14E0160C0E901640F14C0E90347446136
:103140008461C4610462FDF7CBFD08B172B6FEE78D
:10315000D748DA4944380160D949C0E90114C4604C
:10316000C0E904458461C461FDF784FD08B172B60D
:10317000FEE7CF48D34998380160C0E90164C0E94F
:10318000034744618461C4610462FDF7A9FD08B18D
:1031900072B6FEE7C648FFF795FF00F0CFFB00F0E0
:1031A00031FF6FF06304C84D07E02246232146201B
:1031B00000F04AFF0A20FDF709FCA8790028F4D0A6
:1031C000BB48EC38FFF744FF20B94FF48051BF48AB
:1031D000FDF70BFD6846FFF771FEB54838226946DA
:1031E0004430FDF7B8F8FDF7E9F9B149B848C43102
:1031F00001250860202088802831B64808600846EC
:1032000050318580B348086040158880B248B14984
:10321000112201608815B0498880A039AD48086046
:10322000102088805031AB48086008208880283101
:10323000A8480860202088805031A1F50870FFF769
:103240008BFCA5482830FFF752FCA3480123C82275
:1032500000212830FFF7FCFC9FEDA02B9FEDA11B68
:103260009FEDA20B9C485030FFF71AFE9FEDA12B5B
:103270009FEDA21B9FEDA38B9748B0EE480AF0EE9E
:10328000680A9830FFF713FE9FEDA02B9FED9B1B64
:103290009FEDA00B90486830FFF702FE9FED952B45
:1032A0009FED961B8C48B0EE480AF0EE680AB030ED
:1032B000FFF7FDFD9FED992B9FED9A1B9FED8F0B67
:1032C00085488030FFF7ECFD9FED982B9FED8B1B21
:1032D0009FED980B8048C830FFF7E9FD7A48F7EE7C
:1032E00000AAE038C0ED00AADFED948AC0ED018AA3
:1032F000C0ED02AA9FED929AB3EE0E0A80ED039AFA
:1033000080ED050ABBEE0E0A80ED040AB1EE048AD8
:1033100080ED078AF9EE049AC0ED069A9FED89AA1E
:1033200080ED08AAFFF768F86748B0EE08CAA83829
:10333000B3EE04BA80ED02CA80ED039A80ED05BABF
:10334000FBEE04BAC0ED04BA80EC028A80ED078A75
:10335000C0ED069A80ED08AAFFF74EF85A48B0EE85
:10336000000A703880ED000AC0ED018A80ED020A83
:1033700080ED039A80ED05BAC0ED04BA80ED078AAE
:10338000C0ED069A80ED08AAFFF736F84E483838A7
:1033900080ED00CAC0ED018AC0ED02AA80ED039A5B
:1033A00080ED05BAC0ED04BA80ED078AC0ED069A3B
:1033B00080ED08AAFFF720F80227634C4FF00408BD
:1033C0004FF00D090A26207838B9FEF763FD012871
:1033D00007D0FEF75FFD022810D020780D281CD002
:1033E0002FE0032000F004FBCDE900860A231E2213
:1033F00000210F2000F088FD65700CE0012000F036
:10340000F7FACDE900860A231E2200216FF00E0094
:1034100000F07AFD677084F800900321012000F02D
:10342000B3FA08B125700FE06078012802D00228B5
:1034300003D006E00121042001E00221052000F074
:103440009DFB207801281DD1234918224039684668
:10345000FCF7C6FF204850380FC800F0A9F99FEDCF
:103460003B1B84ED180B53EC112B51EC100B01F0AE
:10347000AFF803D800F0C6FD277006E00321012055
:1034800000F0EAFA207802289DD1CDE900561E23EB
:1034900000215A420846029600F072FD4FF47A70FD
:1034A000FDF794FA8FE700003038024000440040F6
:1034B0009401002000580040A0860100004C00400C
:1034C00040420F00005C004008050020000C024054
:1034D00000100240000402404803002000000000E9
:1034E0000000184000000000000010400000000034
:1034F0000000004000000000000034400000000018
:103500000000000000000000000034C000000000C7
:103510000000244000000000000024C00000000063
:103520000000744000000000000064400000000043
:103530000000374000000000000037C0000000001D
:103540000AD7A33C0AD7233C180000200000000043
:1035500000002A402DE9F04F0C462DED048B83B07E
:10356000B0EE409AF0EE609A9FED8B0BDFF8309250
:1035700001258C4E6FF00E0B04279FED8B8ADFF830
:103580002C82012820D0022862D004287AD0052875
:1035900059D153EC102B51EC190B01F053F952D2C5
:1035A00051EC190B00F082FD8246F0EE488A00BF14
:1035B00000EE90AA99ED040A7A48FEF72DFF012C3F
:1035C0007DD0022C7CD0DFE053EC102B51EC190B9A
:1035D00001F038F937D251EC190B00F067FD824643
:1035E000F0EE488A00EE90AA99ED030A6D48FEF7C6
:1035F00013FF032C02D0042C0FD01EE0CDE9007580
:1036000096ED0D0A0A232822B1EE400A0F21BDEEE5
:10361000C00A10EE100A00B20DE0CDE9007596ED7B
:103620000D0A0A232822B1EE400A5946BDEEC00A0F
:1036300010EE100A00B200F067FC38EE288A18EE8F
:10364000100A4045CEDD03B0BDEC048BBDE8F08F21
:1036500053EC102B51EC190B01F0F4F8F3D251ECB0
:10366000190B00F023FD8246F0EE488A00EE90AA86
:1036700099ED030A4B48FEF7CFFE032C03D0042C30
:103680000ED01BE024E0CDE9007596ED0D0A0A236B
:103690002822BDEEC00A0F2110EE100A00B20BE086
:1036A000CDE9007596ED0D0A0A232822BDEEC00A69
:1036B000594610EE100A00B200F026FC01E047E087
:1036C00053E038EE288A18EE100A4045CEDDBAE7FE
:1036D00053EC102B51EC190B01F0B4F8B3D251ECB0
:1036E000190B00F0E3FC8246F0EE488A00EE90AA47
:1036F00099ED040A2B48FEF78FFE012C02D0022C14
:103700000FD01EE0CDE9007596ED0D0A0A232822A0
:10371000B1EE400ABDEEC00A10EE100A01B20F2051
:103720000DE0CDE9007596ED0D0A0A232822B1EED1
:10373000400ABDEEC00A10EE100A01B2584600F071
:10374000E3FB38EE288A18EE100A4045CEDD7AE712
:10375000CDE9007596ED0D0A0A232822BDEEC00AB8
:1037600010EE100A01B214200CE0CDE9007596EDC0
:103770000D0A0A232822BDEEC00A10EE100A01B27B
:103780006FF0130000F0C0FB38EE288A18EE100A24
:1037900040457FF70DAF56E7000000000000000035
:1037A00018000020600400200AD7233C0000A0403D
:1037B0000FB4002270B52DED028B86B0BDF83450E9
:1037C0000C982946FDF719FA14216846FCF73AFED1
:1037D000012000240095CDE90104039469460C986A
:1037E000FDF706F9012229460C98FDF706FA052097
:1037F000FCF706FF002229460C98FDF7FEF940F27F
:10380000EE20FCF7FDFE02200095CDE9014069465F
:103810000C98FDF7EDF89FED288B44F644062946F9
:103820000C98FDF7DDF970B19DED0E0B53EC182BE4
:1038300051EC100B00F078FE12D1204600F0B0FEE3
:10384000CDE90E010CE029460C98FDF7C9F938B90D
:10385000732C05DD204600F0A3FECDE9100105E044
:103860000120FCF7CDFE641CB442D8DB9DED0E0BAD
:103870009DED101B53EC102B51EC110B01F018F8BF
:103880009FED0F1B53EC112B00F0F6FC9FED0E1B70
:1038900053EC112B00F0D8FE41EC180B6420FCF720
:1038A000AFFE06B0B0EE480AF0EE680ABDEC028B3F
:1038B00070BC5DF814FB0000000000000000000078
:1038C0000000000000004D40000000000000E03F4C
:1038D00019490A78A52A28D14A785A2A25D18978FF
:1038E0000122012910D0022910D0032910D0042967
:1038F00010D0052910D0062910D0072910D008298A
:1039000010D0092910D010E002700EE042700CE0D7
:1039100082700AE0C27008E0027106E0427104E0C1
:10392000827102E0C27100E002720349032208467C
:103930004068FEF72BBA0000000000200249032275
:1039400008464068FEF722BA000000203EB50C464B
:10395000012102220A23012802D0022806D00EE00B
:10396000CDE9001302921E235A4204E0CDE9001370
:1039700002921E231A460021084600F001FB204651
:10398000BDE83E40FDF722B830B5164C054691B073
:10399000A088042805D00420FFF716FBA07004209F
:1039A000A0806846FFF7BCFA422269460E48FCF741
:1039B000D2FC0E48FFF7D8F80B49E080B1F8401070
:1039C000A94202D1012011B030BD40F2FF3188423E
:1039D000F9D30123642200210448FFF739F90020BC
:1039E000F1E7000018000020100200207003002002
:1039F00070B5044640F2FF35012229461548FFF70D
:103A0000E9F91448FFF773F84FF4FA70FCF7DEFF9A
:103A1000012C0CD0022C0FD0032C10D0042C17D169
:103A200040F21131BDE870400A48FFF73DB9BDE8EA
:103A300070400848FFF75BB840F20511F2E72A46EC
:103A4000BDE8704001234FF4E1710248FFF764B80C
:103A500070BD0000700300202DE9F043414C054685
:103A60002DED028B91B0A0884FF00408042805D0FA
:103A70000420FFF7A9FAA070A4F804806846FFF7B5
:103A80004FFA422269463848FCF765FC3748FFF791
:103A90006BF8354EE080B6F84000A84260D1354F53
:103AA0009FED338A06F506754FF48069F0EE488A7B
:103AB000308F00EE100A2D48F8EE400A94ED020A0D
:103AC000B830FEF7A9FCE08800EE100A2A48F8EEAC
:103AD000400A94ED060AFEF79FFC95ED0D0AB5EE3F
:103AE000C00AF1EE10FA01DB012205E0B5EEC00AD2
:103AF000F1EE10FA15D2002232211C48FFF76AF9C4
:103B0000E088D5ED0D0A00EE100AB8EE400A30EE5E
:103B1000800ABCEEC00A10EE100A81B21348FFF70B
:103B2000C3F8E08848450FD202211348CDE900814F
:103B300090ED0D0A0F231E22BDEEC00A194610EEAD
:103B4000100A00B200F0E0F938EE288A18EE100AE8
:103B5000B842ADDD012011B0BDEC028BBDE8F083B1
:103B60000020F8E718000020100200207003002059
:103B70000AD7233C0000A040D00400202DE9F041EA
:103B800088462DED0A8B86B005469FEDD3CB9FED81
:103B9000D4BB9FEDD58B9FEDD6AB9FEDD79BD84C7B
:103BA0001822D8496846FCF71BFCD64E883E06F121
:103BB00078000FC8FFF7FCFD84ED1A0B1822A6F160
:103BC00040016846FCF70CFCA6F1800707F13000C5
:103BD0000FC8FFF7EDFD84ED100B1822A6F11801B8
:103BE0006846FCF7FDFB583797E80F00FFF7E0FD4C
:103BF00084ED120B182206F138016846FCF7F0FB41
:103C000006F128000FC8FFF7D3FD84ED160B18222C
:103C100006F110016846FCF7E3FB96E80F00FFF79A
:103C2000C7FD84ED140B182206F160016846FCF70D
:103C3000D7FB503696E80F00FFF7BAFD84ED180B5E
:103C400053EC1B2B51EC100B00F0C2FC5DD894ED33
:103C5000180B53EC182B51EC100B00F0F3FD54D261
:103C600094ED180B53EC1A2B51EC100B00F05CFC8C
:103C70004BD0042D49D04FF47A76052D45D094EDE4
:103C8000100B53EC192B51EC100B00F0DBFD13D88B
:103C900094ED120B53EC192B51EC100B00F0D2FDEC
:103CA0000AD894ED180B53EC1B2B51EC100B00F0C1
:103CB0008FFC01D8012D25D094ED140B53EC192B5A
:103CC00051EC100B00F0BEFD7ED894ED160B53ECBA
:103CD000192B51EC100B00F0B5FD75D894ED180BB5
:103CE00053EC1B2B51EC100B00F072FC6CD8022D26
:103CF0006AD13146022006B0BDEC0A8BBDE8F04126
:103D0000FFF724BE31460120F5E794ED140B53EC88
:103D1000182B51EC100B00F095FD20D294ED160BF2
:103D200053EC182B51EC100B00F08CFD17D294EDD6
:103D3000140B53EC1A2B51EC100B00F0F5FB0ED0CA
:103D4000B0EE4A0AF0EE6A0A53EC102B94ED160B13
:103D500051EC100B00F0E8FB01D0022D4ED094ED99
:103D6000100B53EC182B51EC100B00F06BFD20D214
:103D700094ED120B53EC182B51EC100B00F062FD7C
:103D800017D294ED100B53EC1A2B51EC100B00F0E2
:103D9000CBFB0ED0B0EE4A0AF0EE6A0A53EC102BC1
:103DA00094ED120B51EC100B00F0BEFB01D0012D75
:103DB0004BD0042D71D0052D06D194ED1A0B53EC88
:103DC000182B51EC100B00E080E000F03BFD7ED89A
:103DD00094ED1A0B53EC1A2B51EC100B00F0A4FBD2
:103DE00075D094ED1A0B414684ED0E0B052006B0FC
:103DF000BDEC0A8BBDE8F041FFF7ACBB94ED140BB2
:103E000053EC192B51EC100B00F0E2FB5FD894ED52
:103E1000160B53EC192B51EC100B00F0D9FB56D8B4
:103E200094ED160B53EC102B94ED140B51EC100B7E
:103E300000F06EF953EC1C2B00F006FC41EC100B6B
:103E4000414684ED0A0B0220D1E794ED100B53ECB0
:103E5000192B51EC100B00F0BBFB38D894ED120B72
:103E600053EC192B51EC100B00F0B2FB2FD894ED52
:103E7000120B53EC102B94ED100B51EC100B00F0C7
:103E800047F953EC1C2B00F0DFFB41EC100B4146D3
:103E900084ED080B0120AAE7FFE794ED180B53EC23
:103EA000182B51EC100B00F0CDFC10D894ED180B32
:103EB00053EC1A2B51EC100B00F036FB07D094EDAD
:103EC000180B414684ED0C0B042090E7FFE706B089
:103ED000BDEC0A8BBDE8F081000000000000E03F6F
:103EE0000000000000003240000000000000000060
:103EF000000000000000F03F00000000000028402B
:103F000018000020300300202DE9FF4117A6DDE94D
:103F10000A4596E8C0508DE8C050060A8DF80400A6
:103F2000080A8DF805008DF806108DF80820100A93
:103F30008DF809308DF807008DF80A408DF8036080
:103F40008DF80B5010216846FEF7B7FD8DF80F0075
:103F50000A480A23102269464068FDF73FFF18B15E
:103F6000002004B0BDE8F0810120FAE7A55A030063
:103F70000000000000000000000000000000002021
:103F80002DE9FF470CAE96E8300219A696E8C0115D
:103F90008DE8C011060A8DF80400080A8DF80500A6
:103FA0008DF80610100A8DF807008DF80820180A01
:103FB0008DF809008DF80A308DF80C508DF80360EB
:103FC0008DF80B408DF80D9010216846FEF775FDB9
:103FD0008DF80F000A480A23102269464068FDF751
:103FE000FDFE18B1002004B0BDE8F0870120FAE71B
:103FF000A55A0500000000000000000000000000BD
:10400000000000201FB50BA30FCB8DE80F0010217F
:104010006846FEF752FD8DF80F000A480A23102269
:1040200069464068FDF7DAFE10B1002004B010BD0B
:104030000120FBE7A55A020000000000000000007C
:1040400000000000000000207FB513A678CE8DE8A8
:104050007800030A8DF80400080A8DF805008DF831
:104060000610100A8DF807008DF803308DF808202F
:1040700010216846FEF721FD8DF80F000A480A233B
:10408000102269464068FDF7A9FE10B1002004B077
:1040900070BD0120FBE70000A55A070000000000EA
:1040A00000000000000000000000002021F000429D
:1040B000A2F16052B2F5801F01F0004328BFD2F197
:1040C0007F6C0BD95FEA001C43EAC20242EB5070DE
:1040D00018BF704728BF20F001007047B2F5801F5D
:1040E000BCBF184670474FEA410C1CF5001F02D2B6
:1040F000084600F03DBD70B500F050FB000000899F
:10410000FFF7F6BF4FF00040A0F5800070470000B9
:1041100010B591EA030F48BF83F0004300F1D0834C
:10412000841A71EB030C05D2121943EB0C03001B2C
:1041300061EB0C01DFF824E14FEA1154A4EB135CAE
:104140001EEA430F18BF9EEA445F73D023EA0E03B2
:10415000DCF1200E21EA045143F4801332D322FA19
:104160000CFE10EB0E0023FA0CFE41EB0E01CCF11D
:10417000200E03FA0EFE10EB0E0051F10001B1F516
:10418000801FCCF1200E32D201EB045112FA0EF254
:10419000BDE8104058BF7047401C38BF5FEA42027C
:1041A00018BF7047002814BF20F0010041F1000142
:1041B0004FEA410313F5001F38BF7047A1F1C0411A
:1041C00000F03ABB012A43EB0302ACF1200CDCF116
:1041D0001F0E32BF4FF0000E23FA0CF310EB03005A
:1041E00041EB0451B4EB115FD0D0A1EB045101F5C8
:1041F000801149085FEA300001EB04510ED350F101
:10420000000038BF12FA0EFE08D1BDE81040C9E721
:10421000401C38BF5FEA4202CAD1C3E7BDE8104084
:104220004FEA410313F5001F38BF7047A1F1C041A9
:1042300000F002BB9EEA445F08D011EA5E0FBDE8C1
:10424000104004BF01F0004100207047BDE810405D
:1042500070B500F0A3FA00BF64FBBE3E0000E0FFB3
:10426000491058BFC1F140415B1058BFC3F14043F2
:104270008B42EFF3008070472DE9C04130B4DFF886
:10428000A0C23CEA111418BF3CEA131400F0EC8001
:1042900081EA03051CEA111444EAD57418BF1CEA2C
:1042A000131500F0C780A4EB05044FF0004545EA64
:1042B000C12145EAC32341EA505143EA525304F174
:1042C0007F74994204F500344FEAC0204FEAC222BD
:1042D00008BF904200F09C804FEA13650FF2401631
:1042E000765D4FEA134506FB05F7C7F1807706FBBD
:1042F00007F74FEAD737A7FB03687642C8F580383F
:10430000A7FB06CE38BFA8F1010807FB08E64FF06F
:10431000000EA6FB028CE6FB03CEDCF1000CCEF116
:10432000004E38BFAEF1010EA6FB0C584FF000074F
:104330004FF00005E6FB0E87A1FB08C6A0FB07CEE9
:1043400016EB0E0645F10005E1FB076515F1E04EA1
:104350007EBFA4F580345FEA46066D4116F1800702
:1043600045F100054FEA17274FEA066647EA056759
:10437000A6F1DE46B6F1805F4FEA15251FD9384613
:1043800024F0010C05EBC471BCF1FE6F01EB0C11C4
:1043900002D8F0BCBDE8008124425CBF01F5801E5C
:1043A0009EEAC47F02D4F0BCBDE80081244238D428
:1043B000F0BCA1F1C041BDE8004100F03DBA4FEAB8
:1043C000D22242EA43524FEAD323A7FB02864FEAA6
:1043D000D02040EA415007FB03661EEA0E0F4FEA69
:1043E000D12105FB026658BFA6EB0056B6EB00567E
:1043F0004FEA520E4EEAC37E18EB0E0E56EB530EEA
:10440000BDD518EB02085E417F1C55F10005B6E7EB
:104410004FF480154FF000074FF000064FF00008F2
:10442000ADE7F0BC4FF0000001F1C04101F00041E8
:10443000BDE8008111EA0C1F0CEA131500D00CE056
:1044400013EA0C1F00F025804FF00000F0BC81EA59
:10445000030101F00041BDE80081F0BCBDE800416E
:1044600081EA030100F0E8B9F0BCBDE8004170B595
:1044700000F094F9097EFC3E00F007B881EA0301E0
:104480004FF0000001F00041704781EA030100F0A5
:10449000D3B9F0BCBDE800414FF00000214970479E
:1044A000FFFDFBF9F7F5F4F2F0EEEDEBE9E8E6E4F9
:1044B000E3E1E0DEDDDBDAD8D7D5D4D3D1D0CFCD80
:1044C000CCCBCAC8C7C6C5C4C2C1C0BFBEBDBCBBB9
:1044D000BAB9B8B7B6B5B4B3B2B1B0AFAEADACABB4
:1044E000AAA9A8A8A7A6A5A4A3A3A2A1A09F9F9E8E
:1044F0009D9C9C9B9A999998979796959594939340
:10450000929191908F8F8E8E8D8C8C8B8B8A8989D6
:104510008888878786858584848383828281818059
:104520000000FF070000F87F51EA030C17D41CF5C8
:10453000801F58BFBCF5801F00F10680994218BF4C
:10454000704708BF9042704707D711F5801F58BFCA
:1045500013F5801F19D499427047894270471CF5A2
:10456000801F08D5BCF5801FF7D58B4218BF704758
:1045700008BF824270474FF4001C1CEB410F38BF4C
:104580001CEB430F01D28B42704770B500F006F967
:10459000922449004FF000514FF08053FFF760BE66
:1045A00010F0004248BF4042B0FA80F310FA03F125
:1045B0000AD0C3F11D0303F580634FEA415002EBBB
:1045C000035202EBD12170474FF00000704700000A
:1045D00051EA030C17D41CF5801F58BFBCF5801F8F
:1045E00000F10680994218BF704708BF904270479B
:1045F00007D711F5801F58BF13F5801F19D49942B2
:104600007047894270471CF5801F08D5BCF5801F94
:10461000F7D58B4218BF704708BF824270474FF4EE
:10462000001C1CEB410F38BF1CEB430F01D28B4227
:10463000704770B500F0B2F8922449004FF0005175
:104640004FF08053FFF70CBEDFF848C170B51CEA8D
:10465000111E1EBF1CEA13159EEA0C0F95EA0C0FE3
:1046600000F06F8081EA030423EA4C134EEAD47E03
:1046700021EA4C1141F4801143F48013AE44A1FBB4
:10468000024CA0FB0365AEF17F7E361955EB0C059D
:10469000A1FB034C4CF10003A0FB021C16EB0C0623
:1046A000654153F10003094218BF46F0010613F4B7
:1046B000007F0BD14FEA03314FEA0530340341EA62
:1046C000155140EA16506FF003020AE04FEAC32189
:1046D0004FEAC520F40241EA555140EA56506FF0C6
:1046E000020202EB2E4201EB025585EACE710AD09E
:1046F0005FEA440C18BF24F0004450F1000041F17F
:10470000000120EAD47040F2FE7C624500D270BD08
:10471000A84214BF4FF080444FF04044002E08BF21
:104720000024BEF1806FA8BFA1F1C041BDE8704078
:1047300080F282804FF0000001F1C04101F00041A1
:1047400070479EEA0C0F0CEA131518BF95EA0C0F80
:1047500006D04FF0000081EA030E0EF0004170BD5C
:1047600000F01CF88900013E00F007B800F009B81D
:104770004FEA430C5FEA5C5C08D081EA030100F079
:104780005BB84FEA410C5FEA5C5CF6D14FF0000089
:10479000014970470000FF070000F87F0EF1020E8C
:1047A0002EF0030E5EF8046B364205D4012A43EB6B
:1047B000030515F5001F12D8012841EB010C1CF56B
:1047C000001F0CD80ED14FEAD17C15F5001F0CEB61
:1047D0004C0C0CF1020C08BF4CEBD37C04E04FF006
:1047E000080C01E04FEAD37C0CEB4C0526FA05F6E9
:1047F00006F00706B6F1040C06D20EEB860CBDE8F7
:1048000070404CF0010C6047DFE80CF0090B02022D
:104810004FF000414FF00000A1F5002170BD194696
:104820001046012851EB010418BFD4F5001484BFD1
:10483000002001F0004170BD0808A0F500114FEA0A
:104840003101704753EA010C17D41CF5801F58BF83
:10485000BCF5801F00F106808B4218BF704708BF6F
:104860008242704707D713F5801F58BF11F5801F8C
:1048700019D48B4270479B4270471CF5801F08D5A6
:10488000BCF5801FF7D5994218BF704708BF90420A
:1048900070474FF4001C1CEB430F38BF1CEB410F5B
:1048A00001D2994270470FB40CBC03BCFFF7C1BEE4
:1048B00010B591EA030F48BF83F000433FF530ACD9
:1048C000841A71EB030C07D212198CF0004C43EBE5
:1048D0000C03001B61EB0C01DFF8A4E14FEA11545B
:1048E000A4EB135C1EEA430F18BF9EEA445F00F07E
:1048F000B08023EA6E03524221EA0451C3EB6E03F7
:1049000038BF5B1EDCF1200E25D322FA0CFE10EB23
:104910000E0043FA0CFE41EB0E01CCF1200E03FA1F
:104920000EFE10EB0E0051F10001CCF1200E29D447
:1049300012FA0EF201EB0451BDE8104058BF704767
:10494000401C1CBFB2F1004F704700280CBF491C2F
:1049500020F00100704712EB020E43EB030218BF78
:104960004FF0010E4EEA4202ACF1200CDCF11E0EBB
:1049700054D943FA0CFE10EB0E0051F1FF31CCF18B
:104980001E0ED5D50EF1010E12FA0EFE404141EB7E
:10499000010101EB445C5FEA5C5C10D910EBDE7056
:1049A00001EB045138BFBEF1004FBDE8104018BF05
:1049B000704700280CBF491C20F00100704730D21E
:1049C0004FEAD42C11F5001124F400641BD0B1FA85
:1049D00081F20B3AA41AA41ED2F12003914030FABE
:1049E00003F31943904001EBCC71002C01EB04510F
:1049F000BDE81040A8BF704701F1C0414FF0000072
:104A000001F000417047B0FA80F310FA03F100D1D1
:104A100010BDE41A173C4805C90AE4E701EB04514C
:104A200010BD491001EB0451BDE810404FEA3000C1
:104A300002E04FF0000170474A0008BF0042F8D082
:104A4000B2F5001F28BF704701F000414FF0000091
:104A500070479EEA445F07D011EA5E0FBDE8104040
:104A600004BF002100207047BDE8104070B5FFF77B
:104A700095FE00BF40DFF63E83F0004110467047D0
:104A80000000E0FF43004FEAD30C4FEA3C0C4340E8
:104A90001FBF40070CF1605113F0FE4F70471CF030
:104AA000006F03D100200CF0004170470CF0004370
:104AB00043EA507010B540EACC0000F00EF800BF99
:104AC000000000924FEA0001FFF7B6BE4FF0004130
:104AD0004FF00000A1F5002170470EF1020E2EF0FC
:104AE000030E5EF8044B244204D44FEA4102B2F1B3
:104AF0007F4F11D84FEA4003B3F17F4F0CD80ED14E
:104B00004FEAD07CB2F17F4F0CEB4C0C0CF1020C55
:104B100008BF4CEBD17C04E04FF0080C01E04FEAF9
:104B2000D17C0CEB4C0324FA03F404F00704B4F139
:104B3000040C06D20EEB840CBDE810404CF0010CC6
:104B40006047DFE80CF0070802024FF00040A0F5D4
:104B5000800010BD0846420018BFD2F1807288BFA5
:104B600000F0004010BD4FF04070E1EE100A7047B9
:104B7000FF2141EAD050C00570470006101600061C
:104B800010160000000000000000010203040607E8
:104B9000080900000000010203040000BC4B0008EB
:104BA0000000002098000000C4010008544C0008D8
:104BB00098000020400B0000E00100080000000009
:104BC0000000000065000000000000000000000080
:104BD0000000000000000000090000000000204369
:104BE0000000804000000041000000000000004480
:104BF00000000000000000000000000000000000B5
:104C000000000000000000000000000000000000A4
:104C10000000000000000000000000000000000094
:104C20000000000000000000000000000000000084
:104C30000000000000000000000000000000000074
:104C40000000000001000000100000000000000053
:044C50000024F40048
:040000050800018965
:00000001FF
