:020000040800F2
:10000000100C002029020008D7220008911E0008C9
:10001000D52200080B050008E927000800000000B1
:10002000000000000000000000000000FB220008AB
:100030002D06000800000000F9220008FD2200083B
:10004000430200084302000843020008430200087C
:10005000430200084302000843020008430200086C
:10006000430200084302000843020008430200085C
:10007000430200084302000843020008430200084C
:100080000D0500084302000843020008430200086F
:10009000430200084302000843020008430200082C
:1000A000430200084302000843020008430200081C
:1000B000430200084302000843020008430200080C
:1000C00043020008430200084302000843020008FC
:1000D0004302000843020008DD270008430200082D
:1000E00043020008430200084302000843020008DC
:1000F00043020008430200084302000843020008CC
:1001000043020008430200084302000843020008BB
:1001100043020008430200084302000843020008AB
:10012000430200084302000843020008430200089B
:10013000430200084302000843020008430200088B
:10014000430200084302000843020008430200087B
:10015000430200084302000843020008430200086B
:10016000430200084302000843020008430200085B
:100170004302000843020008430200080000000098
:10018000430200084302000800F002F800F03CF8C7
:100190000AA090E8000C82448344AAF10107DA45E2
:1001A00001D100F031F8AFF2090EBAE80F0013F0F8
:1001B000010F18BFFB1A43F0010318471045000058
:1001C00030450000103A24BF78C878C1FAD85207E9
:1001D00024BF30C830C144BF04680C6070470000C1
:1001E0000023002400250026103A28BF78C1FBD840
:1001F000520728BF30C148BF0B6070471FB504F0DD
:100200004FFA1FBD10B510BD00F046F91146FFF7BB
:10021000F5FF02F0C1FF00F064F903B4FFF7F2FF4D
:1002200003BC00F06BF9000009488047094800470B
:10023000FEE7FEE7FEE7FEE7FEE7FEE7FEE7FEE796
:10024000FEE7FEE704480549054A064B70470000F3
:10025000952300088901000810060020100C0020DA
:10026000100800201008002053EA020C00F06980FA
:100270002DE9F04B4FF00006002B1FBFB3FA83F5BA
:1002800003FA05F424FA05F65E4012BF1643B2FAEB
:1002900082F502FA05F4C5F120051EBF22FA05FC1D
:1002A00044EA0C04203556EA044C4FEA144418BFC3
:1002B000641C4FF000084FF00009904271EB030CF2
:1002C00039D3002919BFB1FA81F701FA07F6B0FA5C
:1002D00080F700FA07F6C7F120071EBF20FA07FCD7
:1002E00046EA0C062037B6FBF4FCA7EB0507103FE7
:1002F00007F01F0BCBF120060CFA0BFB2CFA06F6CD
:1003000044BFB3460026202FA4BF5E464FF0000B2B
:100310005BEA060C08BF4FF0010B19EB0B09ABFBB6
:10032000027C48EB0608C01B06FB02CC0BFB03CC8F
:1003300071EB0C01C1E70B46024641464846BDE859
:10034000F08B13B54FF000004FF00001AFF30080C9
:10035000BDE81C407047032A40F2308010F0030CC7
:1003600000F0158011F8013BBCF1020F624498BF08
:1003700011F801CB00F8013B38BF11F8013BA2F1A5
:10038000040298BF00F801CB38BF00F8013B11F020
:10039000030300F02580083AC0F0088051F8043BC0
:1003A000083A51F804CBA0E80810F5E7121D5CBF2D
:1003B00051F8043B40F8043BAFF30080D20724BF60
:1003C00011F8013B11F801CB48BF11F8012B24BFF4
:1003D00000F8013B00F801CB48BF00F8012B704743
:1003E00010B5203AC0F00B80B1E81850203AA0E8D0
:1003F0001850B1E81850A0E81850BFF4F5AF5FEA04
:10040000027C24BFB1E81850A0E8185044BF18C9B6
:1004100018C0BDE810405FEA827C24BF51F8043B5D
:1004200040F8043B08BF7047D20728BF31F8023BB1
:1004300048BF11F8012B28BF20F8023B48BF00F845
:10044000012B70474FF0000200B5134694469646C4
:10045000203922BFA0E80C50A0E80C50B1F12001D7
:10046000BFF4F7AF090728BFA0E80C5048BF0CC085
:100470005DF804EB890028BF40F8042B08BF7047E3
:1004800048BF20F8022B11F0804F18BF00F8012B55
:100490007047704770477047754600F02BF8AE46BE
:1004A00005006946534620F00700854618B020B580
:1004B000FFF7C8FEBDE820404FF000064FF00007F0
:1004C0004FF000084FF0000B21F00701AC46ACE8FC
:1004D000C009ACE8C009ACE8C009ACE8C0098D4669
:1004E000704710B50446AFF300802046BDE81040C9
:1004F000FFF793BE00487047AC0500200149182063
:10050000ABBEFEE7260002007047FEE7014800F0A0
:10051000EBB800004C05002001681823CAB2103A5D
:10052000B2FBF3F2054B6FF30901032A9B5CC36531
:1005300000D9091D8165084670470000AA460008D9
:1005400010B5014600208B698A6A4FF0C07453B120
:10055000B3F5005F15D072B1012A0CD0022A0AD07F
:10056000032A09D104E01AB1012A06D0022A03D1D4
:10057000C96AC90100D5012010BDC96AA142FAD0DB
:1005800010BD002AF7D0012AF2D0022AF3D0032AA4
:10059000F3D010BD30B50468256825F480252560AA
:1005A000046863608368402B036803D09960006827
:1005B000C26030BD9A600068C16030BD0E480168FD
:1005C00021F080710160016841F0807101600B4889
:1005D000016821F001010160016841F00101016041
:1005E0000021416000BF00BF00BF406808B100208B
:1005F0007047012070470000FCED00E0001000E0B3
:1006000031B5084C656800F05DFF0749B0FBF1F0BB
:1006100000994143081A00916168491B8142FBD34C
:1006200038BD0000001000E040420F00704772B675
:10063000FEE72DE9F0410446876D00F0E3FA064637
:1006400094F835000025022806D08020606584F8E3
:1006500034500120BDE8F0812068016821F01601C6
:1006600001602068416921F080014161206C08B976
:10067000A06C20B12068016821F0080101602068A9
:10068000016821F0010101600CE000F0BBFA801B61
:10069000052807D920206065032084F8350084F8F8
:1006A0003450D7E720680068C007EED194F85C109A
:1006B0003F208840B860012084F8350084F8345029
:1006C0000020C7E790F83510022903D0802141654A
:1006D00001207047052180F835100068016821F07D
:1006E00001010160002070472DE9F84304464FF0F6
:1006F0000009CDF8009063484FF41651A56D0068CD
:10070000B0FBF1F72E6894F85C10082000FA01F1B4
:1007100031420FD021680A6852070BD50A6822F0CF
:1007200004020A6094F85C108840A860606D40F094
:100730000100606594F85C104FF0010808FA01F0C0
:10074000304208D021684969090604D5A860606D67
:1007500040F00200606594F85C100420884030424C
:1007600008D021680968890704D5A860606D40F049
:100770000400606594F85C1010208840304218D066
:1007800021680968090714D5A86020680168490331
:1007900004D50068000308D5A16C07E00168C9050D
:1007A00003D4016821F008010160216C09B12046E1
:1007B000884794F85C1020208840304231D021686E
:1007C0000968C9062DD5A86094F835000528206869
:1007D000016806D0490347D5006800031DD4616C49
:1007E0001CE021F0160101602068416921F08001C0
:1007F0004161206C08B9A06C20B12068016821F02B
:100800000801016094F85C103F208840A86084F8DB
:10081000358084F83490216D1FE0E16B09B12046EA
:100820008847606D00282BD0606DC00714D005206C
:1008300084F835002068016821F00101016000980A
:10084000401C0090B84203D820680068C007F6D169
:1008500084F8358084F83490E16C002910D001B020
:100860002046BDE8F04308470168C905D5D40168B2
:1008700021F01001016084F8358084F83490CCE7D1
:10088000BDE8F883940000202DE9F041044600F013
:10089000B9F906465CB1022084F83500002584F8D9
:1008A00034502068016821F0010101600DE0012051
:1008B000BDE8F08100F0A6F9801B052805D92020AD
:1008C0006065032084F83500F2E720680068C007FF
:1008D000F0D12268116820480140D4E9010318438F
:1008E000D4E903363343184363691843A3691843B3
:1008F000E3691843236A18430843616A042903D152
:10090000D4E90B1319430843106020684069666AF4
:1009100020F0070130460E43012704280CD1A06ABD
:100920000643E06A40B12046FFF70AFE20B14020AE
:10093000606584F83570BAE7206846612046FFF7A5
:10094000EBFD94F85C203F2191408160656584F85F
:1009500035700020ACE700003F8010F02DE9F04139
:100960000446866D90F83400002501280DD0012042
:1009700084F8340094F835700020012F07D084F8F3
:10098000340002252846BDE8F0810220FBE702275B
:1009900084F8357060652046FFF7FCFD94F85C1024
:1009A0003F208840B0602068016841F01601016076
:1009B000206C20B12068016841F0080101602068C6
:1009C000016841F001010160DCE7000070B50446F8
:1009D00000F018F90546601C02D004480078044471
:1009E00000F010F9401BA042FAD370BD880000202F
:1009F0002DE9F84FDFF8BCA10022012503264FF0B6
:100A00000F090AF1040BAAF1040E00BF0B6805FAE6
:100A100002F42340A34270D10F7907F00307012F9E
:100A200001D0022F16D187684FEA420806FA08FC67
:100A300027EA0C07D1F80CC00CFA08FC4CEA070CAA
:100A4000C0F808C04768A7430C79C4F30014944069
:100A50003C4344600C79E443A4070AD0C4684FEADD
:100A6000420C06FA0CF7BC438F6807FA0CF72743D1
:100A7000C7600C7904F00304022C12D1D40800EBF7
:100A8000840CDCF820405707FF0E09FA07F824EA27
:100A90000804D1F8108008FA07F848EA0408CCF8EE
:100AA000208004684FEA420C06FA0CF7BC430F7929
:100AB00007F0030707FA0CF7274307604C6814F4A4
:100AC000403F70D03C4C276847F48047276024683B
:100AD00022F0030704F480440094384C07EB040C24
:100AE000DCF8084897074FEA177809FA08F7BC437B
:100AF000334FB84202D1002724E054E0314FB842CE
:100B000001D101271EE0304FB84201D1022719E080
:100B10002E4FB84201D1032714E02D4FB84201D126
:100B200004270FE02B4FB84201D105270AE02A4FD6
:100B3000B84201D1062705E0284FB84201D1072766
:100B400000E0082707FA08F72743CCF80878DAF816
:100B500000405746D1F804C09C435FEACC2C00D536
:100B60001C433C60DBF800405F46D1F804C09C4366
:100B70005FEA8C2C00D51C433C60DEF800407746D1
:100B8000D1F804C09C435FEA8C3C00D51C433C6018
:100B9000084F083F3C68D1F804C09C435FEACC3C56
:100BA00000D51C433C60521C102AFFF42FAFBDE857
:100BB000F88F0000083C01404438024000300140FA
:100BC000000002400004024000080240000C024005
:100BD000001002400014024000180240001C0240B5
:100BE0000069084000D001207047426921EA0203F1
:100BF0000A4043EA0241816170470AB1816170474E
:100C00000904FBE701488068704700008800002065
:100C100090F83C10012912D0012100F83C1F24213A
:100C2000417050F83C1CCA6822F00C0242F00402E9
:100C3000CA602021417000210170084670470220DF
:100C4000704790F83C10012912D0012100F83C1F98
:100C50002421417050F83C1CCA6822F00C0242F07A
:100C60000802CA60202141700021017008467047C7
:100C70000220704770B5040004D094F83D000025B0
:100C800010B106E0012070BD84F83C50204600F011
:100C9000A3FF242084F83D002068C16821F400519E
:100CA000C160204601F08EFC2068016921F490416A
:100CB00001612068416921F0220141612068416998
:100CC00041F0080141612068C16841F40051C160F0
:100CD0002564202084F83D0084F83E00002070BD8B
:100CE00070B5040025D094F83D00002520B984F8A3
:100CF0003C50204600F03EFA242084F83D00206855
:100D0000016821F0010101602068016841F400419F
:100D100001602068016821F40041016000F0D8FB07
:100D20004D4A6168914201D84C4900E04C498842E3
:100D300001D2012070BD4B492368B0FBF1F15E6820
:100D400026F03F060E435E606368934206D94FF477
:100D5000967359434FF47A73B1FBF3F12368491C3E
:100D60001E6A26F03F06314319626168914210D82D
:100D70004900401EB0FBF1F2521CC2F30B02042AE0
:100D800001D2042022E0B0FBF1F0401CC0F30B00C4
:100D90001CE0A268F2B301EBC10303EB0116431E92
:100DA000B3FBF6F35B1C43F480431B0549D092B3BD
:100DB00001EBC10202EB0111401EB0FBF1F0401C3F
:100DC000C0F30B0040F4804040F400402168CA6941
:100DD0004CF6FF739A431043C861D4E907100143EE
:100DE0002068026822F0C00211430160D4E90301C7
:100DF00001432068826848F2FF339A4311438160BF
:100E0000D4E9050108432168CA6822F0FF021043B3
:100E1000C86001E00EE016E02068016841F00101C1
:100E200001602564202084F83D00256384F83E504D
:100E3000002070BD01EB4106431EB3FBF6F35B1CC3
:100E4000B3E70120C2E701EB4101401EB0FBF1F026
:100E5000401CC0F30B00B7E7A086010080841E0091
:100E600000093D0040420F002DE9F84F1F46904613
:100E70008A460446DDF82890FFF7C4FE054694F83C
:100E80003D00202875D1192301226C492046009588
:100E900001F000F90028F5D194F83C00012868D051
:100EA000012084F83C0020680168C90703D101686B
:100EB00041F0010101602068016821F400610160D6
:100EC000222084F83D00102084F83E00002626648D
:100ED000C4F824806785608D20855948E0622B46E0
:100EE0004A465146204600F0EBFF002878D1208D7D
:100EF000544F68B1012814D002282068016816D028
:100F000041F480610160206841698069009087E058
:100F10002068416981690091016841F400710160B4
:100F20007EE02068016821F480610160F0E721F42F
:100F3000806101602068016841F40061E2E70328F4
:100F400048D801280AD0022814D04B46002239463E
:100F50002046009501F09EF8D8BB27E02A46494676
:100F6000204601F016F9A0BB20680069616A08708C
:100F70004DE061E04B46002239462046009501F0E5
:100F800089F830BB2068016841F400710160206875
:100F90000069616A0870606A401C6062218D491EA8
:100FA0002185618D491E618521682EE020680168D8
:100FB00021F48061016020680069616A0870606ADC
:100FC000401C6062208D401E2085608D401E608523
:100FD000D0E705E02A464946204601F0DAF810B18C
:100FE0000120BDE8F88F20680069616A0870606AB6
:100FF000401C6062218D491E2185618D491E6185DD
:1010000021684A69D24352070AD409690170606AAB
:10101000401C6062208D401E2085608D401E6085D2
:10102000208D00288BD1202084F83D0084F83E607C
:1010300084F83C600020D4E70220D2E702001000D0
:101040000000FFFF040001002DE9F84F1F46904605
:101050008A460446DDF82890FFF7D4FD054694F84B
:101060003D0020287FD119230122404920460095C8
:1010700001F010F8002876D194F83C00012872D0D5
:10108000012084F83C0020680168C90703D1016889
:1010900041F0010101602068016821F400610160F4
:1010A000212084F83D00102084F83E0000262664AC
:1010B000C4F824806785608D20852D48E0622B462A
:1010C0004A465146204600F071FF90B920684169B8
:1010D0008069009036E02A464946204601F08CF8A7
:1010E00050B1206C042804D12068016841F40071DB
:1010F00001600120BDE8F88F606A2168007808610E
:10110000606A401C6062618D491E6185218D491EA7
:1011100089B2218522685369DB435B070BD451B147
:1011200000781061606A401C6062608D401E6085BE
:10113000208D401E20852A464946204600F084FF27
:101140000028CED1208D0028C5D154F83D0B016870
:1011500041F400710160202004F81E09E6776677EB
:101160000020C7E7FFE70220C4E7000002001000EC
:101170000000FFFF2DE9F04186B0044614216846C7
:10118000FFF760F92F4A2168DFF8BC8000242E4861
:1011900012250326042708F1100891421CD101688A
:1011A00041F002010160006802AA00F0020005900F
:1011B000B002CDE9000582E8D00069462348FFF778
:1011C00017FCD8F8001041F48001C8F80010D8F8D6
:1011D000000000F4800031E01D4A91422FD10168E7
:1011E00041F004010160016801F00401059101680A
:1011F00041F0010101600068694600F001000590BE
:101200005015CDE9000502AA124882E8D000FFF788
:10121000EFFB4FF48070CDE9000502AA694682E831
:10122000D0000D48FFF7E4FBD8F8001041F40001AE
:10123000C8F80010D8F8000000F40000059006B0CF
:10124000BDE8F08100580040303802400004024000
:10125000005C004000080240000002400248816833
:101260000278114481607047880000200B4810B557
:10127000016841F400710160016841F4806101601E
:10128000016841F480710160032000F06FF80F20C5
:1012900000F006F800F024F8002010BD003C0240E9
:1012A00070B50D4D04464FF47A712878B1FBF0F01B
:1012B0000A490968B1FBF0F000F012FB48B9102CA4
:1012C00007D200222146501E00F030F800206C604A
:1012D00070BD012070BD0000880000209400002037
:1012E0000A4808B5016841F480410160006800F4D3
:1012F000804000900548001F016841F08051016066
:10130000006800F08050009008BD000044380240A2
:10131000002809DB00F01F020121914040098000F4
:1013200000F1E020C0F8001170470000F0B40E4B4F
:101330001B680C46C3F30223C3F10705042D00D933
:101340000425191D072901D2002300E0DB1E012618
:1013500006FA05F1491E214099409E40761E16402E
:101360003143F0BC01F041BA0CED00E0064900F059
:10137000070208684FF6FF03184040EA0220034ABC
:1013800010430860704700000CED00E00000FA0513
:101390002DE9F0470E46050065D0DFF81481D8F836
:1013A0000000F7B200F00700B04207D288F80070E2
:1013B000D8F8000000F00700B04254D128683D4C36
:1013C000810712D5400703D5206840F4E050206023
:1013D0002878000703D5206840F46040206020682A
:1013E000A96820F0F000084320602878C0072DD0BD
:1013F000304968680839012812D0022813D0032820
:1014000011D00968890700292DDA216821F003012C
:1014100001432160FFF7F6FB814641F2883A0EE076
:1014200009688903EFE709688901ECE7FFF7EAFB40
:10143000A0EB0901514502D90320BDE8F0872068DF
:10144000696800F00C00B0EB810FEFD1D8F8001004
:10145000404601F00701B14207D90770006800F06B
:101460000700B04201D00120E7E72878400705D502
:101470002068E96820F4E0500843206028780007DD
:1014800006D52068296920F4604040EAC100206048
:1014900000F03EF82168084AC1F30311515CC840CE
:1014A0000649086006480068FFF7FAFE0020C4E716
:1014B000003C024008380240B24600089400002078
:1014C0008C00002001480068704700009400002054
:1014D0000448054900680968044AC1F38221515C47
:1014E000C84070479400002008380240C2460008F7
:1014F0000448054900680968044AC1F34231515C57
:10150000C84070479400002008380240C2460008D6
:10151000154810B5006810F00C02144813D0144997
:10152000042A0FD0082A0ED10F4C241F22682368EA
:1015300002F03F025B0207D52068C0F38810A0FBD1
:10154000010106E0084610BD2168C1F38811A1FB26
:1015500000010023FEF788FE2168C1F30141491C08
:101560004900B0FBF1F010BD083802400024F4003F
:1015700040787D012DE9F84F04006ED02078DFF827
:101580004C93C007A9F104054AD009F10400016891
:10159000C1F38101012908D00068C0F3810002284D
:1015A0000AD1D9F80000400206D52868800337D553
:1015B00060680028E1D033E06068B0F5803F10D06B
:1015C000B0F5A02F286810D020F48030286028685B
:1015D00020F4802028606068A8B1FFF713FB06465E
:1015E0000DE0286840F48030F4E740F48020286063
:1015F000F7E700BFFFF706FB801B642873D8286855
:101600008003F7D50CE0FFF7FDFA064605E000BFC2
:10161000FFF7F8FA801B6428F0D828688003F7D415
:101620002078DFF8AC8280074FF0000A3ED5A7484B
:10163000001D016811F00C0F08D00068C0F3810094
:1016400002280BD1D9F80000400207D4286880078F
:1016500016D5E068012800D112E033E1E068B8B1A6
:101660000120C8F80000FFF7CDFA064605E000BFEC
:10167000FFF7C8FA801B0228C0D828688007F7D572
:101680002868216920F0F80040EAC10028600DE0D8
:10169000C8F800A0FFF7B6FA064604E0FFF7B2FA72
:1016A000801B02281FD828688007F7D420780007FD
:1016B00022D5864F87486169703771B10121016079
:1016C000FFF7A0FA064604E0FFF79CFA801B022809
:1016D00009D838688007F7D50EE0C0F800A0FFF7FA
:1016E00091FA064605E082E0FFF78CFA801B02289B
:1016F0007DD838688007F7D42078400768D5DFF8B0
:10170000CCB100270BF13C0BDBF80000C0000BD480
:10171000DBF8001041F08051CBF80010DBF800003E
:10172000012700F0805000906B4E3068C00510D447
:10173000306840F480703060FFF764FA009005E094
:10174000FFF760FA0099401A022850D83068C005A7
:10175000F6D55E4EA0686C3601280FD0052830689B
:1017600010D020F001003060306820F004003060BC
:10177000A068B8B1FFF746FA00900FE0306840F07B
:101780000100F4E740F004003060F7E7FFF73AFAB1
:101790000099411A41F28830814266D8306880074A
:1017A000F4D50EE0FFF72EFA009007E0FFF72AFAD3
:1017B0000099411A41F28830814256D8306880073A
:1017C000F4D42FB1DBF8001021F08051CBF80010D9
:1017D000A069C8B33D49091D0968C1F38101022907
:1017E0004AD00228504607D0C8F8600000E03CE02C
:1017F000FFF708FA04463BE04746C8F86000FFF7E9
:1018000001FA064605E000BFFFF7FCF9801B02283D
:101810002BD828688001F7D4D4E907010843A16ACE
:101820002E4A490802EB0141626A41EA82110843EB
:1018300094F82C1040EA0161C9F8001001203866C4
:10184000FFF7E0F9044606E03EE000BFFFF7DAF9F3
:10185000001B022809D828688001F7D534E000BFB2
:10186000FFF7D0F9001B022802D90320BDE8F88F4A
:1018700028688001F4D427E00128F7D0D9F80000C7
:10188000E26900F4800191421CD1226A00F03F011C
:10189000914217D147F6C071626A0140B1EB821FD5
:1018A00010D1A26A4FF0FF3300F4403103EB520233
:1018B000B1EB024F06D194F82C1000F07060B0EB41
:1018C000016F01D00120D1E70020CFE704380240AA
:1018D00000004742800E4742007000400000FFFFBA
:1018E00010B5401EB0F1807F01D3012010BD4FF034
:1018F000E02460610F21601700F077FF0020A061F5
:1019000007202061002010BD70477047F8B50168BE
:1019100004460868CA684B6910F00F0F4FF00005C5
:1019200059D003F0010602F49077374365D0C10720
:1019300005D0D10503D5216C41F001012164410797
:1019400005D5D90703D0216C41F00201216481073C
:1019500005D5D90703D0216C41F0040121640107AA
:1019600007D502F02001314303D0216C41F008017A
:101970002164216C00293AD0800604D5900602D556
:10198000204600F0BFFD20684069216CC0F3801044
:10199000090700D460B3204600F07FFD206840694D
:1019A000400621D52068143050E8001F21F0400186
:1019B00040E80012002AF5D1A06BA8B16C4901657E
:1019C000A06BFEF77FFE002811D0A06B016D01B067
:1019D000BDE8F040084783060FD593060DD5204695
:1019E000BDE8F84000F08EBD2046FFF78EFFF8BD41
:1019F0002046FFF78AFF2564F8BD266B2023012EC1
:101A000079D1C60677D5D60675D50868486800909E
:101A10004869400640D5A16B086840680004000C86
:101A2000EAD0A28D8242E7D9E085C869B0F5807F0F
:101A30002DD020680C3050E8001F21F4807140E860
:101A40000012002AF5D12068143050E8001F21F060
:101A5000010140E80012002AF5D12068143050E856
:101A6000001F21F0400140E80012002AF5D184F85F
:101A70003E30256320680C3050E8001F21F0100133
:101A800040E80012002AF5D1A06BFEF7D2FDA08D30
:101A9000E18D401A81B229E0A08DE18D401A81B21A
:101AA000E08D0028A8D00029A6D020680C3050E88E
:101AB000002F22F4907240E80026002EF5D1206815
:101AC000143050E8002F22F0010240E80026002EDA
:101AD000F5D184F83E30256320680C3050E8002FA3
:101AE00022F0100240E80023002BF5D12046FFF73A
:101AF0000BFFF8BDFFE705062BD5150629D594F891
:101B00003D002128F5D1A068B0F5805F01D12069A2
:101B1000B0B1206A411C2162216800784860E08CE5
:101B2000401E0004000CE084E3D12068C16821F06D
:101B30008001C1602068C16841F04001C160D8E700
:101B4000206A0088C0F308004860206A801C206278
:101B5000E5E74006CDD55006CBD5CA68204622F031
:101B60004002CA6084F83D3000F091F9C1E70000FE
:101B7000A523000870B5040004D094F83D000025AA
:101B800010B106E0012070BD84F83C50204600F002
:101B900023F8242084F83D002068C16821F4005116
:101BA000C160204600F00EFD2068016921F49041DB
:101BB00001612068416921F02A0141612068C16802
:101BC00041F40051C1602564202084F83D0084F870
:101BD0003E00002070BD0000F0B587B0064614211D
:101BE0006846FEF72FFC3449324F346800253248EE
:101BF00010390322314BBC421DD1046844F4002447
:101C00000460006800F400200590086840F00100BE
:101C100008600868694600F0010005900120009006
:101C20001220CDE901050820CDE903201846FEF772
:101C3000DFFE07B0F0BD224FBC42FAD1046844F485
:101C400000340460006800F400300590086840F03B
:101C5000010008600868694600F0010005900C204A
:101C600000900220CDE901050720CDE903201846A8
:101C7000FEF7BEFE144C134820604FF00060C4E92C
:101C800001054014C4E903506561A561E561256261
:101C900020466562FEF7F8FD08B1FEF7C8FCB463A4
:101CA000002211462620A663FFF740FB2620FFF7FF
:101CB0002FFBBEE7004C00404038024000000240CD
:101CC00000440040886002404C0500202DE9F84F98
:101CD000044690F83E009A4616460D46202853D1F9
:101CE000FDB1F6B194F83C0001284DD0012084F8F4
:101CF0003C0000272764222084F83E002763FEF77B
:101D000081FFA6858146E685A0684FF4805840454E
:101D100001D1206940B12E465FF0000584F83C7087
:101D200027E00120BDE8F88F0026F7E74B460022A8
:101D300020212046CDF800A000F014FD08B10320BA
:101D4000F0E726B1A06840451BD038B108E0206814
:101D50004068C0F3080025F8020B07E0206980B155
:101D60002068406800F07F0006F8010BE08D401EFF
:101D7000E085E08D0028D9D1202084F83E000020A5
:101D8000D0E720684068EFE70220CBE790F83E30CC
:101D9000202B0ED159B152B190F83C30012B08D014
:101DA000012380F83C300023036300F091BC012044
:101DB00070470220704700000648002181700170C2
:101DC0004171017141708171C170C171017201F085
:101DD00099BC000040050020704700002DE9F84341
:101DE000044690F83D001F4616460D4620284CD16B
:101DF000C5B1BEB194F83C00012846D0012084F85A
:101E00003C004FF00008C4F84080212084F83D00D9
:101E1000FEF7F8FEA6848146E684A068B0F5805FF0
:101E200003D004E00120BDE8F883206928B12E46E4
:101E30005FF0000584F83C800EE00026FAE7802180
:101E4000204600F08FFCA0B9AEB116F8010B216856
:101E50004860E08C401EE084E08C4B464FF000026E
:101E600000970028EBD14FF04001204600F07AFCAB
:101E700030B10320D7E735F8020BC0F30800E6E7DE
:101E8000202084F83D000020CDE70220CBE77047FA
:101E9000FEE701684A69D24352050FD46FF48062AD
:101EA0004A61002140F8301F202242738173026989
:101EB00042F0040202610173012070470020704764
:101EC0002DE9F84F0446C06A1E4693460D46216828
:101ED0000A6842F480620A60082807D0012805D009
:101EE00010F5803F02D0206B112804D120680168D2
:101EF00041F4807101604FF001195B4600224946B0
:101F00002046009600F0C6F84FF4007840B12068F3
:101F10000068C00501D5C4F840800320BDE8F88FF3
:101F20002069DFF884A0B0F5804F0FD0062021682B
:101F300000EAD51747F0F000086133465A460AF127
:101F40000601204600F0DAF858BB03E0E8B240F0A2
:101F500001001CE02168E8B2086133465A46514648
:101F6000204600F0CBF8E0B9206841698169009112
:101F7000016841F4807101605B46002249462046B9
:101F8000009600F087F80028C1D147F0F1002168E1
:101F9000086133465A465146204600F0AFF8002803
:101FA000BCD00120BAE7000002000100F8B50446E9
:101FB000C06A1E460D461746082807D0012805D0DE
:101FC00010F5803F02D0206B122804D120680168F0
:101FD00041F480710160134600224FF00111204648
:101FE000009600F057F840B120680068C00502D59F
:101FF0004FF4007020640320F8BD2069B0F5804FD5
:102000000ED00620216800EAD51040F0F0000861EB
:1020100033463A460B49204600F070F878B902E0A2
:1020200005F0FE0000E0E8B221680861054933468A
:102030003A46891F204600F061F80028DCD00120D4
:10204000F8BD00000800010070B516460D460446B4
:102050000DE02046FFF71DFF08B1012070BD681C90
:1020600005D0FEF7CFFD801BA84207D835B1206808
:102070004069C0434007ECD4002070BD002044F804
:10208000300F20216173A073216941F0200121618B
:102090002073E2E72DE9F0471E4690460D460446C0
:1020A000C1F30747DDF8209008E0701C06D0FEF76A
:1020B000A9FDA0EB0900B0420FD876B12068012F2E
:1020C00018D0806925EA00000004000C14D000211B
:1020D0004145EAD00020BDE8F087002044F8300FE9
:1020E00020216173A073216941F0200121612073D7
:1020F0000120F0E74069E5E70121E9E72DE9F04734
:102100009A4691460E46044600254FF02008C1F33A
:10211000074725E020684069C043400514D4206883
:10212000016841F40071016021686FF480604861CA
:10213000256384F83D8084F83E50206C40F0040014
:10214000206484F83C501FE0B9F1FF3F08D0FEF74F
:1021500059FDA0EB0A0149450CD8B9F1000F09D08F
:102160002068012F13D0806926EA00000004000CCB
:102170000BD0CFE744F8305F84F80D80A573206959
:1021800040F02000206125730120BDE8F087406900
:10219000EAE72DE9F041002590460E460446202747
:1021A00017E04069C043C0060CD454F8301B6FF0F0
:1021B0001000486144F810596777A577206A2062BB
:1021C000257717E0FEF71EFDA0EB0800B04208D807
:1021D0003EB120684169C9434906E2D40020BDE808
:1021E000F08144F8305F6773A573206940F02000E8
:1021F000206125730120F2E770B516460D460446AE
:102200000DE02046FFF745FE08B1012070BD681CB7
:1022100005D0FEF7F7FC801BA84207D835B120682F
:102220004069C0430006ECD4002070BD002044F893
:10223000300F20216173A073216941F020012161D9
:102240002073E2E770B586B014216846FEF7FAF80D
:102250001E480024016841F080010160016801F01E
:1022600080010591016841F001010160016801F000
:1022700001010591016841F002010160016801F06E
:1022800002010591016841F004010160016801F05B
:1022900004010591016841F01001016000680C4ED5
:1022A00000F010004FF400750590002229463046DA
:1022B000FEF7A3FC01200095CDE9010469463046F4
:1022C0000394FEF795FB06B070BD00003038024065
:1022D00000040240FEE7FEE79FED060A80ED090AD2
:1022E00080ED0A0A80ED0B0A80ED0C0A80ED0D0AE4
:1022F000704700000000000070477047FEF7AEBF57
:1023000030B593B030216846FEF79CF814210CA834
:10231000FEF798F81D480025016841F080510160E2
:10232000006800F0805011901948016841F4804124
:1023300001600068022400F48040119001200390A5
:1023400010200490009406940820CDE90750A8209E
:10235000CDE9090404200B906846FFF70BF908B19A
:1023600072B6FEE70CA90F2081E831004FF4A050AF
:102370000F904FF48050109005210CA8FFF708F83B
:10238000002801D072B6FEE713B030BD40380240DD
:10239000007000400248016841F47001016070471C
:1023A00088ED00E010B5806B0021C185C184FFF786
:1023B000ACFA10BD70B5846B2068406994F83D108C
:1023C000C0F3C0100025212904D118B1E5842046AE
:1023D00000F08AF82068406994F83E10C0F380103D
:1023E000222904D118B1E585204600F056F8206C6A
:1023F00040F0100020642046FFF787FA70BD10B54A
:102400000146806B09680968C9052FD40021C18580
:1024100001680C3151E8002F22F4807241E800235A
:10242000002BF5D10168143151E8002F22F0010290
:1024300041E80023002BF5D10168143151E8002F49
:1024400022F0400241E80023002BF5D1202180F842
:102450003E10016B012909D101680C3151E8002FB0
:1024600022F0100241E80023002BF5D1016B012975
:1024700002D0FFF7A1FC10BD818DFFF745FA10BD1A
:1024800010B5806B016B012902D0FFF7A5FC10BDD0
:10249000818D4908FFF738FA10BD01680C3151E809
:1024A000002F22F4907241E80023002BF5D101683F
:1024B000143151E8002F22F0010241E80023002BE3
:1024C000F5D1016B012909D101680C3151E8002FC8
:1024D00022F0100241E80023002BF5D1202180F8E2
:1024E0003E1000210163704701680C3151E8002F54
:1024F00022F0C00241E80023002BF5D1202180F812
:102500003D10704708B590F83E10222901D00220F6
:1025100008BD82684FF480539A4201D1016921B10C
:10252000816A9A421BD04AB10AE00268816A526805
:10253000C2F308020A80816A891C08E0026972B14C
:102540000268526802F07F020A70816A491C816247
:10255000C18D491E0904090CC18503D019E0026828
:102560005268F1E70168CA6822F02002CA60016877
:10257000CA6822F48072CA6001684A6922F00102C6
:102580004A61202180F83E10016B012903D0FFF73A
:1025900013FC002008BD0021016301680C3151E8E3
:1025A000002F22F0100241E80023002BF5D1016832
:1025B0000A68D20602D50A6849680091818DFFF742
:1025C000A3F9E6E770B5044600680169E26821F402
:1025D0004051114301612169A068E26908436169C2
:1025E000114308432168CA6849F20C639A430243C5
:1025F000CA6020684169A26921F4407111434161B8
:1026000031492068884202D03049884202D1FEF721
:102610006FFF01E0FEF75CFFE269002319216425EA
:102620003226B2F5004F626828D0A0FB0101930F5B
:102630009200FDF719FE0146B0FBF5F06FF01802AD
:10264000504301EB800006EB0010B0FBF5F000F00A
:10265000F002B1FBF5F002EB0012B1FBF5F06FF008
:102660001803584301EB800006EB0010B0FBF5F0B7
:1026700000F00F0021681044886070BDA0FB0101CC
:1026800092185B41FDF7F0FD0146B0FBF5F0020149
:10269000B1FBF5F06FF01803584301EB800006EB37
:1026A000C000B0FBF5F000F0F80002EB4002B1FB17
:1026B000F5F0584301EB800006EBC000B0FBF5F0ED
:1026C00000F00700D6E700000010014000140140B0
:1026D00038B58162828500251346044605642220B0
:1026E00084F83E00A26B1C48D063A26B1B481064A8
:1026F000A26B1B48D064A06B0A4605652168A06BDD
:10270000091DFEF72BF9206801684068009084F8E5
:102710003C50206948B120680C3050E8001F41F45B
:10272000807140E80012002AF5D12068143050E88A
:10273000001F41F0010140E80012002AF5D1206895
:10274000143050E8001F41F0400140E80012002A18
:10275000F5D1002038BD0000FF23000881240008C7
:10276000B52300082DE9F041984617460E46044669
:10277000069D27E0681C25D02DB1FEF743FAA0EB9B
:102780000800A8421ED920680C3050E8001F21F430
:10279000D07140E80012002AF5D12068143050E8CA
:1027A000001F21F0010140E80012002AF5D120208D
:1027B00084F83D0084F83E00002084F83C000320AB
:1027C000BDE8F0812068006836EA000004D00020EF
:1027D000B842CFD00020F3E70120F9E70148FFF726
:1027E00095B8000094010020FEE70907090E0028B3
:1027F00004DB00F1E02080F80014704700F00F00C7
:1028000000F1E02080F8141D7047034610B5002049
:10281000024604E09C5C521C2044C0B2D2B28A4200
:10282000F8D310BD10B50023022203E0845C521CD3
:102830002344DBB28A42F9DBD843C0B210BD10B5E5
:102840000446012100F010F90021204600F0A4F810
:1028500040F2FF31204600F06DF82046BDE8104000
:1028600040F20B2100F034B8024B186081F82320AD
:1028700070470000100000202DE9F0410D461F4672
:1028800090460646012100F0EFF80021304600F0A6
:1028900083F840F2FF342146304600F04BF83A46C8
:1028A0004FF4FA71304600F0A9F82946304600F09E
:1028B0000FF84FF47A70FEF789F83A4641463046F1
:1028C00000F09CF821463046BDE8F041AFF30080AF
:1028D0003EB513A41CCC8DE81C0090F823008DF8A5
:1028E00002008DF80610080A8DF8070009216846D5
:1028F000FFF798FF0D4C8DF808002068FEF7A1F94E
:102900000A23092269462068FFF768FA2068FEF763
:102910007FF90A23062206492068FFF7D7F93EBD52
:10292000FFFF0005031E0000000000001000002053
:10293000980000203EB513A41CCC8DE81C0090F834
:1029400023008DF802008DF80610080A8DF80700A4
:1029500009216846FFF766FF0D4C8DF808002068D6
:10296000FEF76FF90A23092269462068FFF736FA55
:102970002068FEF74DF90A23062206492068FFF772
:10298000A5F93EBDFFFF00050308000000000000A0
:1029900010000020980000203EB513A41CCC8DE848
:1029A0001C0090F823008DF802008DF80610080A2C
:1029B0008DF8070009216846FFF734FF0D4C8DF8AC
:1029C00008002068FEF73DF90A23092269462068BD
:1029D000FFF704FA2068FEF71BF90A2306220649CE
:1029E0002068FFF773F93EBDFFFF000503060000F6
:1029F0000000000010000020980000203EB50B0AE7
:102A0000012A01D143F0040312A534CD8DE834002E
:102A100090F823008DF806108DF802008DF807302D
:102A200009216846FFF7FEFE0D4C8DF8080020686E
:102A3000FEF707F90A23092269462068FFF7CEF955
:102A40002068FEF7E5F80A23062206492068FFF70A
:102A50003DF93EBDFFFF000503200000000000001F
:102A600010000020980000203EB512A41CCC8DE878
:102A70001C0090F823008DF802008DF80610092143
:102A80006846FFF7CFFE0E4C8DF808002068FEF771
:102A9000D8F80A23092269462068FFF79FF92068C1
:102AA000FEF7B6F80A23062206492068FFF70EF95A
:102AB0003EBD0000FFFF00050318000100000000FC
:102AC000100000209800002070B59FED2B0B0D46E4
:102AD0002DED0A8B044653EC102B91ED028B51EC3B
:102AE000180B01F0B3FB95ED009B53EC192B01F093
:102AF000E3F895ED04BB53EC1B2B01F0DDF894EDEE
:102B0000060B41EC1A0B53EC1B2B51EC100B01F094
:102B10009DFB94ED040B41EC1B0B53EC182B51EC7B
:102B2000100B01F093FB94ED020B41EC1C0B53ECEA
:102B3000182B51EC100B01F089FB94ED000B41ECCC
:102B4000180B53EC192B51EC100B01F07FFB53ECDD
:102B5000182B01F0B1F853EC1C2B01F0ADF853EC3D
:102B60001B2B01F0A9F853EC1A2B01F059F9BDEC1D
:102B70000A8B41EC100B70BD00000000000000400B
:102B800070B50D462DED0A8BB0EE408AF0EE608AEE
:102B900004469FED7CCB9FED7D9B90ED040B51ECAB
:102BA000180B53EC102B01F015FB02D285ED00CB76
:102BB00035E094ED040B51EC180B53EC102B01F0A5
:102BC00043FC21D894ED020B51EC180B53EC102B65
:102BD00001F000FB18D894ED040B94ED02BB53EC0C
:102BE000102B51EC1B0B01F071FC41EC1A0B53EC58
:102BF000182B51EC1B0B01F069FC53EC1A2B01F064
:102C00000FF9C5E900010AE094ED020B51EC180B35
:102C100053EC102B01F018FC01D285ED009B94EDD4
:102C2000040B51EC180B53EC102B01F0D3FA62D3C8
:102C300094ED040B51EC180B53EC102B01F004FC39
:102C40001FD894ED020B51EC180B53EC102B01F034
:102C5000C1FA16D894ED04AB94ED020B53EC1A2B89
:102C600051EC100B01F032FC41EC1B0B53EC1A2B16
:102C700051EC180B01F02AFC41EC100B53EC1B2B10
:102C800029E094ED020B51EC180B53EC102B01F0E2
:102C9000DBFB27D894ED000B51EC180B53EC102BF9
:102CA00001F098FA1ED894ED041B94ED020B53EC3E
:102CB000112B51EC100B01F009FC94ED000B41ECD1
:102CC0001A0B53EC182B51EC100B01F0FFFB53ECDB
:102CD0001A2B41EC100B51EC100B01F0A1F8C5E9D7
:102CE00002010AE094ED000B51EC180B53EC102B91
:102CF00001F0AAFB01D285ED029B94ED020B51EC91
:102D0000180B53EC102B01F065FA04D285ED049BEF
:102D1000BDEC0A8B70BD94ED020B51EC180B53EC1B
:102D2000102B01F091FB21D894ED000B51EC180B06
:102D300053EC102B01F04EFA18D894ED040B94EDDF
:102D4000029B53EC102B51EC190B01F0BFFB41EC33
:102D50001A0B53EC192B51EC180B01F0B7FB53EC89
:102D60001A2B01F05DF8C5E90401D1E794ED000BE1
:102D700051EC180B53EC102B01F066FBC8D285ED1B
:102D800004CBC5E7000000000000F03F0000000099
:102D90000000000070B515462DED028B0E4604466E
:102DA000012B62D0022B5DD194ED040B94ED028BCC
:102DB00053EC102B51EC180B01F088FB96ED041B23
:102DC00053EC112B01F042FA53EC182B01F072FB7B
:102DD000C5E9000194ED048B94ED020B53EC182B24
:102DE00051EC100B01F072FB96ED021B53EC112B12
:102DF00001F02CFA53EC182B00F05EFFC5E902013C
:102E000094ED041B94ED020B53EC112B51EC100BC1
:102E100001F05CFB96ED021B53EC112B01F016FA4E
:102E200094ED001B53EC112B01F044FBC5E90401A8
:102E300094ED040B94ED028B53EC102B51EC180B1A
:102E400001F044FB41EC100B96ED001B51EC100B14
:102E500053EC112B01F0FAF953EC182B00F02CFF76
:102E6000C5E90601BDEC028B70BD94ED040B94ED39
:102E7000028B53EC102B51EC180B01F027FB96ED55
:102E8000001B53EC112B01F0E1F953EC182B01F06E
:102E900011FBC5E9000194ED048B94ED020B53EC9A
:102EA000182B51EC100B01F011FB96ED021B53ECAB
:102EB000112B01F0CBF953EC182B00F0FDFEC5E906
:102EC000020194ED041B94ED020B53EC112B51EC19
:102ED000100B01F0FBFA96ED021B53EC112B01F0E5
:102EE000B5F994ED001B53EC112B01F0E3FAC5E9A1
:102EF000040194ED040B94ED028B53EC102B51EC78
:102F0000180B01F0E3FA41EC100B96ED041B9DE762
:102F100070B52DED028B82B0B0EE408AF0EE608A83
:102F20009FED590B5A4C02250426012833D0022864
:102F300051D004287DD005287CD153EC102B51ECC6
:102F4000180B01F081FA7AD25249B0EE480AF0EE3D
:102F5000680AA1F19000FFF713FE4E4A4D49012384
:102F60001832A1F14800FFF715FF4A4901F1180096
:102F7000FFF7AAFD84ED1A0B51EC100B00F090FE48
:102F800041EC100B51EC100B01F0DEF801B20A23FA
:102F900032220F204CE053EC102B51EC180B01F0B7
:102FA00053FA4CD23B49B0EE480AF0EE680AA1F160
:102FB0009000FFF7E5FD374A364901231832A1F1A9
:102FC0004800FFF7E7FE334901F11800FFF77CFDE9
:102FD00084ED1A0B24E053EC102B51EC180B01F08C
:102FE00033FA2CD22B49B0EE480AF0EE680AA1F170
:102FF0009000FFF7C5FD274A264901231832A1F1A9
:103000004800FFF7C7FE234901F11800FFF75CFDF8
:1030100084ED1A0B51EC100B00F042FE41EC100B4A
:1030200051EC100B01F090F80A23322200B20F216C
:1030300001E008E003E0CDE9006500F05FFD02B0CB
:10304000BDEC028B70BD53EC102B51EC180B01F052
:10305000FBF9F4D20F49B0EE480AF0EE680AA1F18C
:103060009000FFF78DFD0B4A0A4901231832A1F1A8
:103070004800FFF78FFE074901F11800FFF724FD14
:1030800084ED1A0B7EE70000000000000000000045
:10309000180000202804002080ED040B80ED021BA6
:1030A00080ED002B704780ED040B80ED021B80ED5E
:1030B000002B704770B596B014A10646D1E9000107
:1030C0000A25144C0095CDE90101062301AA2178B7
:1030D0006068FDF7B9FF0095102311AA2178606898
:1030E000FDF7C2FEBDF84900ADF80C00BDF84B007D
:1030F000ADF80E00BDF84D00ADF81000382203A960
:103100003046FDF728F916B070BD000055AA110031
:10311000203000000800002030B5194C85B019A2FD
:103120006060D2E900120A250095CDE9031206235A
:1031300003AA2178FDF788FF0095062301AA2178CC
:103140006068FDF791FE9DF80400552812D19DF8A6
:103150000500AA280ED19DF8060011280AD19DF875
:10316000070038B99DF808002E2803D19DF8090002
:103170003E2802D0032005B030BD0020FBE7000050
:103180000800002055AA11002C3C000001494860AD
:1031900070470000000000202DED0A8B8EB0FEF776
:1031A00065F8FFF7ADF8FFF74DF8E5480024016832
:1031B00041F4001101600068224600F40010009004
:1031C00021461020FEF7B2F81020FEF7A1F8DE48E5
:1031D000DC490C2501604FF4E131C0E90114C46001
:1031E000C0E904458461C461FEF7C4FC08B172B64D
:1031F000FEE7D548D549EC38D54E0160C0E90164F9
:103200000F14C0E9034744618461C4610462FDF79F
:1032100067FD08B172B6FEE7CB48CE49443801607D
:10322000CD49C0E90114C460C0E904458461C461AA
:10323000FDF720FD08B172B6FEE7C348C7499838CC
:103240000160C0E90164C0E9034744618461C4616D
:103250000462FDF745FD08B172B6FEE7BA48FFF714
:1032600095FF00F085FA00F0C7FC6FF06305BC4CD9
:1032700007E02A462321462000F0E0FC0A20FDF763
:10328000A5FBA0790028F4D0AF48EC38FFF744FF45
:1032900020B94FF48051B348FDF7A7FC6846FFF70B
:1032A00009FFA948382269464430FDF754F8FDF774
:1032B00085F9A549AC48C4311122086020208880D6
:1032C0002831AA480860012088805031A74808604A
:1032D000401588807831A548086080158880A0391D
:1032E000A2480860102088805031A048086008205B
:1032F000888028319D480860202088805031A1F5C1
:103300000870FFF7B1FA9A48FFF799FA012364228F
:1033100000219748FFF7B0FA9FED962B9FED971B82
:103320009FED980B92482830FFF7B6FE9FED972B44
:103330009FED988BB0EE481AF0EE681A9FED979BC0
:103340008B48B0EE490AF0EE690A7030FFF7ABFE29
:103350009FED8E2B8648B0EE481AF0EE681AB0EE5C
:10336000490AF0EE690A4030FFF796FE9FED8D2B7B
:10337000B0EE481AF0EE681A9FED8C0B7C4888304E
:10338000FFF791FE9FED8B2B9FED8C1B7848B0EEE5
:10339000480AF0EE680A5830FFF77EFE9FED892B51
:1033A000B0EE481AF0EE681A9FED880B7048A03016
:1033B000FFF779FE6A48B7EE008AE038DFED858ACC
:1033C00080EC028A80ED028A9FED839AB3EE0EBAFA
:1033D00080ED039A80ED05BAFBEE0EBAC0ED04BA9B
:1033E000F1EE049AC0ED079AB9EE04AA80ED06AAA0
:1033F000DFED7AAAC0ED08AAFEF76EFF5848B0EEDE
:10340000080AA838B3EE04CA80ED000AC0ED018AAC
:1034100080ED028A80ED039A80ED05CAFBEE04CAB6
:10342000C0ED04CAC0ED079A80ED06AAC0ED08AA57
:10343000FEF752FF4A48703880EC028A80ED028A1B
:1034400080ED039A80ED05CAC0ED04CAC0ED079A6D
:1034500080ED06AAC0ED08AAFEF73EFF40483838C6
:1034600080EC028A80ED028A80ED039A80ED05BA35
:10347000C0ED04BAC0ED079A80ED06AAC0ED08AA17
:10348000FEF72AFF3A48564C4038A0F18805A0F1D3
:10349000C80BA0F58476A0F1A00AA0F15009A0F114
:1034A0007808A0F128070690012000F087F918227B
:1034B00068460699FCF794FF05F178000FC800F004
:1034C00091F884ED180B182259466846FCF788FFDE
:1034D00006F130000FC800F085F884ED0E0B1822BD
:1034E00051466846FCF77CFF06F158000FC800F013
:1034F00079F884ED100B182249466846FCF770FFF6
:1035000005F128000FC800F06DF884ED140B1822A7
:1035100041466846FCF764FF95E80F0000F062F84A
:1035200084ED120B182239466846FCF759FF05F165
:1035300050000FC800F056F884ED160BB4E70000F9
:103540003038024000440040940100200058004000
:10355000A0860100004C004040420F00005C00408B
:1035600040050020000C0240001002400004024010
:103570007003002000000000000022400000000056
:10358000000018400000000000000840000000009B
:1035900000002440000000000000000000000000C7
:1035A000000024C0000000000000344000000000C3
:1035B000000034C000000000000074400000000063
:1035C00000006440000000000000374000000000E0
:1035D000000037C0000000000AD7A33C0AD7233CF4
:1035E000180000200FB4002270B52DED028B86B0BC
:1035F000BDF834500C982946FDF7FFFA14216846AF
:10360000FCF720FF012000240095CDE9010403947C
:1036100069460C98FDF7ECF9012229460C98FDF754
:10362000ECFA0520FCF7ECFF002229460C98FDF788
:10363000E4FA40F2EE20FCF7E3FF02200095CDE92A
:10364000014069460C98FDF7D3F99FED288B44F6AD
:10365000440629460C98FDF7C3FA70B19DED0E0B98
:1036600053EC182B51EC100B00F032FD12D1204618
:1036700000F099FDCDE90E010CE029460C98FDF70C
:10368000AFFA38B9732C05DD204600F08CFDCDE98A
:10369000100105E00120FCF7B3FF641CB442D8DB45
:1036A0009DED0E0B9DED101B53EC102B51EC110BEF
:1036B00000F00CFF9FED0F1B53EC112B00F0B0FB43
:1036C0009FED0E1B53EC112B00F0C0FD41EC180BCD
:1036D0006420FCF795FF06B0B0EE480AF0EE680AE9
:1036E000BDEC028B70BC5DF814FB00000000000014
:1036F000000000000000000000004D40000000003D
:103700000000E03F19490A78A52A28D14A785A2AA8
:1037100025D189780122012910D0022910D003294E
:1037200010D0042910D0052910D0062910D007295F
:1037300010D0082910D0092910D010E002700EE036
:1037400042700CE082700AE0C27008E0027106E08C
:10375000427104E0827102E0C27100E0027203492A
:10376000032208464068FEF711BB0000000000205D
:103770000249032208464068FEF708BB000000200B
:103780003EB50C46012102220A23012802D002285C
:1037900006D00EE0CDE9001302921E235A4204E047
:1037A000CDE9001302921E231A460021084600F0BC
:1037B000E1F92046BDE83E40FDF708B9F0B5054601
:1037C0002DED0A8B87B09FEDC1CB9FEDC2AB9FED76
:1037D000C3BB9FEDC48B9FEDC59BC64C1822C64949
:1037E0006846FCF7FDFDC44E883E06F178000FC820
:1037F000FFF7F8FE84ED180B1822A6F14001684689
:10380000FCF7EEFDA6F1800707F130000FC8FFF7C7
:10381000E9FE84ED0E0B1822A6F118016846FCF7AC
:10382000DFFD583797E80F00FFF7DCFE84ED100B43
:10383000182206F138016846FCF7D2FD06F128008F
:103840000FC8FFF7CFFE84ED140B182206F110010C
:103850006846FCF7C5FD96E80F00FFF7C3FE84ED50
:10386000120B182206F160016846FCF7B9FD5036CC
:1038700096E80F00FFF7B6FE84ED160B53EC1B2BFA
:1038800051EC100B00F0A6FC4CD84FF47A76042DC6
:1038900048D094ED0E0B53EC192B51EC100B00F0AB
:1038A000D3FD13D894ED100B53EC192B51EC100BE6
:1038B00000F0CAFD0AD894ED160B53EC1B2B51EC0B
:1038C000100B00F087FC01D8012D1DD094ED120BD8
:1038D00053EC192B51EC100B00F0B6FD1BD894EDF6
:1038E000140B53EC192B51EC100B00F0ADFD12D85A
:1038F00094ED160B53EC1B2B51EC100B00F06AFCF3
:1039000009D8022D03D006E03146012001E03146FE
:103910000220FFF735FF07B0BDEC0A8BBDE8F04091
:1039200000F06AB994ED120B53EC182B51EC100B0C
:1039300000F08AFD0AD294ED140B53EC182B51ECD5
:10394000100B00F081FD01D2022D2CD094ED0E0B56
:1039500053EC182B51EC100B00F076FD0AD294EDCD
:10396000100B53EC182B51EC100B00F06DFD01D235
:10397000012D57D0042D7AD0052D79D194ED180B57
:1039800053EC182B51EC100B00F05EFD70D894ED49
:10399000180B052084ED0C0B07B0BDEC0A8BBDE8BD
:1039A000F040FFF7B5BA94ED120B53EC192B51EC24
:1039B000100B00F00FFC1BD894ED140B53EC192BDB
:1039C00051EC100B00F006FC12D894ED140B53ECE4
:1039D000102B94ED120B51EC100B00F06DF953EC21
:1039E0001C2B00F033FC41EC100B84ED080B17E0AE
:1039F00094ED120B53EC192B51EC100B00F024FD3D
:103A000008D994ED140B53EC192B51EC100B00F06A
:103A10001BFD57D884ED08ABB0EE4A0AF0EE6A0AF7
:103A20000220B9E794ED0E0B53EC192B51EC100B5F
:103A300000F0D0FB1DD894ED100B53EC192B51EC7A
:103A4000100B00F0C7FB14D894ED100B53EC102BA7
:103A500094ED0E0B51EC100B00F02EF953EC1C2BD7
:103A600000F0F4FB41EC100B84ED060B19E01AE0BA
:103A700028E094ED0E0B53EC192B51EC100B00F0D9
:103A8000E3FC08D994ED100B53EC192B51EC100BFF
:103A900000F0DAFC16D884ED06ABB0EE4A0AF0EE80
:103AA0006A0A012078E794ED160B53EC182B51ECC1
:103AB000100B00F0C9FC05D894ED160B042084ED22
:103AC0000A0B69E707B0BDEC0A8BF0BD00000000EF
:103AD0000000E03F0000000000001840000000006F
:103AE0000000324000000000000000000000000064
:103AF0000000284018000020300300202DE9FF417D
:103B000017A6DDE90A4596E8C0508DE8C050060AC0
:103B10008DF80400080A8DF805008DF806108DF860
:103B20000820100A8DF809308DF807008DF80A403A
:103B30008DF803608DF80B5010216846FEF765FE86
:103B40008DF80F000A480A23102269464068FEF7E4
:103B500045F918B1002004B0BDE8F0810120FAE772
:103B6000A55A030000000000000000000000000053
:103B7000000000202DE9FF470CAE96E8300219A6A0
:103B800096E8C0118DE8C011060A8DF80400080AF5
:103B90008DF805008DF80610100A8DF807008DF8D5
:103BA0000820180A8DF809008DF80A308DF80C509D
:103BB0008DF803608DF80B408DF80D90102168464C
:103BC000FEF723FE8DF80F000A480A2310226946EB
:103BD0004068FEF703F918B1002004B0BDE8F08793
:103BE0000120FAE7A55A05000000000000000000CF
:103BF00000000000000000201FB50BA30FCB8DE8D4
:103C00000F0010216846FEF700FE8DF80F000A48ED
:103C10000A23102269464068FEF7E0F810B1002040
:103C200004B010BD0120FBE7A55A0200000000000F
:103C30000000000000000000000000207FB513A677
:103C400078CE8DE87800030A8DF80400080A8DF814
:103C500005008DF80610100A8DF807008DF8033066
:103C60008DF8082010216846FEF7CFFD8DF80F0073
:103C70000A480A23102269464068FEF7AFF810B1DF
:103C8000002004B070BD0120FBE70000A55A07002A
:103C90000000000000000000000000000000002004
:103CA00081F00041704780F00040704721F00041F2
:103CB000704720F00040704710B591EA030F48BFED
:103CC00083F0004300F10A84841A71EB030C05D2DF
:103CD000121943EB0C03001B61EB0C01DFF824E12C
:103CE0004FEA1154A4EB135C1EEA430F18BF9EEA7F
:103CF000445F73D023EA0E03DCF1200E21EA045165
:103D000043F4801332D322FA0CFE10EB0E0023FA98
:103D10000CFE41EB0E01CCF1200E03FA0EFE10EB6F
:103D20000E0051F10001B1F5801FCCF1200E32D20E
:103D300001EB045112FA0EF2BDE8104058BF704773
:103D4000401C38BF5FEA420218BF7047002814BF0A
:103D500020F0010041F100014FEA410313F5001F7B
:103D600038BF7047A1F1C04100F068BB012A43EBA6
:103D70000302ACF1200CDCF11F0E32BF4FF0000E3D
:103D800023FA0CF310EB030041EB0451B4EB115F89
:103D9000D0D0A1EB045101F5801149085FEA300051
:103DA00001EB04510ED350F1000038BF12FA0EFEA1
:103DB00008D1BDE81040C9E7401C38BF5FEA4202A5
:103DC000CAD1C3E7BDE810404FEA410313F5001F15
:103DD00038BF7047A1F1C04100F030BB9EEA445F9C
:103DE00008D011EA5E0FBDE8104004BF01F00041A9
:103DF00000207047BDE8104070B500F0D1FA00BF58
:103E000064FBBE3E0000E0FF491058BFC1F14041D5
:103E10005B1058BFC3F140438B42EFF30080704703
:103E20002DE9C04130B4DFF8A0C23CEA111418BF3C
:103E30003CEA131400F0EC8081EA03051CEA11143B
:103E400044EAD57418BF1CEA131500F0C780A4EB30
:103E500005044FF0004545EAC12145EAC32341EA84
:103E6000505143EA525304F17F74994204F50034EF
:103E70004FEAC0204FEAC22208BF904200F09C8067
:103E80004FEA13650FF24016765D4FEA134506FBC5
:103E900005F7C7F1807706FB07F74FEAD737A7FB8F
:103EA00003687642C8F58038A7FB06CE38BFA8F174
:103EB000010807FB08E64FF0000EA6FB028CE6FBAC
:103EC00003CEDCF1000CCEF1004E38BFAEF1010E96
:103ED000A6FB0C584FF000074FF00005E6FB0E87DD
:103EE000A1FB08C6A0FB07CE16EB0E0645F10005A8
:103EF000E1FB076515F1E04E7EBFA4F580345FEA73
:103F000046066D4116F1800745F100054FEA172777
:103F10004FEA066647EA0567A6F1DE46B6F1805F1E
:103F20004FEA15251FD9384624F0010C05EBC47162
:103F3000BCF1FE6F01EB0C1102D8F0BCBDE80081B2
:103F400024425CBF01F5801E9EEAC47F02D4F0BC0F
:103F5000BDE80081244238D4F0BCA1F1C041BDE8E5
:103F6000004100F06BBA4FEAD22242EA43524FEAD4
:103F7000D323A7FB02864FEAD02040EA415007FB3B
:103F800003661EEA0E0F4FEAD12105FB026658BFF9
:103F9000A6EB0056B6EB00564FEA520E4EEAC37E31
:103FA00018EB0E0E56EB530EBDD518EB02085E4112
:103FB0007F1C55F10005B6E74FF480154FF0000760
:103FC0004FF000064FF00008ADE7F0BC4FF00000E6
:103FD00001F1C04101F00041BDE8008111EA0C1F70
:103FE0000CEA131500D00CE013EA0C1F00F025803A
:103FF0004FF00000F0BC81EA030101F00041BDE890
:104000000081F0BCBDE8004181EA030100F016BA6E
:10401000F0BCBDE8004170B500F0C2F9097EFC3E7D
:1040200000F007B881EA03014FF0000001F0004101
:10403000704781EA030100F001BAF0BCBDE800411D
:104040004FF0000021497047FFFDFBF9F7F5F4F24E
:10405000F0EEEDEBE9E8E6E4E3E1E0DEDDDBDAD823
:10406000D7D5D4D3D1D0CFCDCCCBCAC8C7C6C5C481
:10407000C2C1C0BFBEBDBCBBBAB9B8B7B6B5B4B398
:10408000B2B1B0AFAEADACABAAA9A8A8A7A6A5A483
:10409000A3A3A2A1A09F9F9E9D9C9C9B9A99999847
:1040A0009797969595949393929191908F8F8E8EEA
:1040B0008D8C8C8B8B8A8989888887878685858477
:1040C00084838382828181800000FF070000F87F63
:1040D00051EA030C17D41CF5801F58BFBCF5801F94
:1040E00000F10680994218BF704708BF90427047A0
:1040F00007D711F5801F58BF13F5801F19D49942B7
:104100007047894270471CF5801F08D5BCF5801F99
:10411000F7D58B4218BF704708BF824270474FF4F3
:10412000001C1CEB410F38BF1CEB430F01D28B422C
:10413000704770B500F034F9922449004FF00051F7
:104140004FF08053FFF760BE4FEA41034FEA5353ED
:10415000A3F58063D3F11E03C8BFD3F1210C0CDD9E
:104160004FF0004242EAC12242EA505232FA03FCC6
:104170008CEAE17CACEBE1707047102BC4BF0020EF
:10418000704703F5787CBCF1FF3F04D06FF000422C
:1041900082EA2100704770B500F002F9499224804C
:1041A00000207047F2E710F0004248BF4042B0FAEA
:1041B00080F310FA03F10AD0C3F11D0303F5806305
:1041C0004FEA415002EB035202EBD12170474FF00E
:1041D0000000704751EA030C17D41CF5801F58BF2C
:1041E000BCF5801F00F10680994218BF704708BFD8
:1041F0009042704707D711F5801F58BF13F5801FF5
:1042000019D499427047894270471CF5801F08D520
:10421000BCF5801FF7D58B4218BF704708BF82429C
:1042200070474FF4001C1CEB410F38BF1CEB430FD1
:1042300001D28B42704770B500F0B2F89224490069
:104240004FF000514FF08053FFF7DEBDDFF848C15B
:1042500070B51CEA111E1EBF1CEA13159EEA0C0F56
:1042600095EA0C0F00F06F8081EA030423EA4C13F7
:104270004EEAD47E21EA4C1141F4801143F48013BC
:10428000AE44A1FB024CA0FB0365AEF17F7E361964
:1042900055EB0C05A1FB034C4CF10003A0FB021CE9
:1042A00016EB0C06654153F10003094218BF46F0B6
:1042B000010613F4007F0BD14FEA03314FEA0530BA
:1042C000340341EA155140EA16506FF003020AE048
:1042D0004FEAC3214FEAC520F40241EA555140EAB2
:1042E00056506FF0020202EB2E4201EB025585EAB6
:1042F000CE710AD05FEA440C18BF24F0004450F19C
:10430000000041F1000120EAD47040F2FE7C6245D9
:1043100000D270BDA84214BF4FF080444FF040441B
:10432000002E08BF0024BEF1806FA8BFA1F1C041DC
:10433000BDE8704080F282804FF0000001F1C04182
:1043400001F0004170479EEA0C0F0CEA131518BFEC
:1043500095EA0C0F06D04FF0000081EA030E0EF034
:10436000004170BD00F01CF88900013E00F007B864
:1043700000F009B84FEA430C5FEA5C5C08D081EAC0
:10438000030100F05BB84FEA410C5FEA5C5CF6D1D8
:104390004FF00000014970470000FF070000F87F60
:1043A0000EF1020E2EF0030E5EF8046B364205D4B9
:1043B000012A43EB030515F5001F12D8012841EB34
:1043C000010C1CF5001F0CD80ED14FEAD17C15F55D
:1043D000001F0CEB4C0C0CF1020C08BF4CEBD37C17
:1043E00004E04FF0080C01E04FEAD37C0CEB4C05E5
:1043F00026FA05F606F00706B6F1040C06D20EEB17
:10440000860CBDE870404CF0010C6047DFE80CF012
:10441000090B02024FF000414FF00000A1F500210E
:1044200070BD19461046012851EB010418BFD4F5A0
:10443000001484BF002001F0004170BD0808A0F501
:1044400000114FEA3101704753EA010C17D41CF5F3
:10445000801F58BFBCF5801F00F106808B4218BF3B
:10446000704708BF8242704707D713F5801F58BFB7
:1044700011F5801F19D48B4270479B4270471CF581
:10448000801F08D5BCF5801FF7D5994218BF70472B
:1044900008BF904270474FF4001C1CEB430F38BF1D
:1044A0001CEB410F01D2994270470FB40CBC03BC06
:1044B000FFF7C1BE91EA030F10B581F000413FF54F
:1044C00003AC83F0004300F009B8000010B591EA96
:1044D000030F48BF83F000433FF5F6AB841A71EB3E
:1044E000030C07D212198CF0004C43EB0C03001B99
:1044F00061EB0C01DFF8A4E14FEA1154A4EB135C6B
:104500001EEA430F18BF9EEA445F00F0B08023EA22
:104510006E03524221EA0451C3EB6E0338BF5B1EA7
:10452000DCF1200E25D322FA0CFE10EB0E0043FA2C
:104530000CFE41EB0E01CCF1200E03FA0EFE10EB47
:104540000E0051F10001CCF1200E29D412FA0EF226
:1045500001EB0451BDE8104058BF7047401C1CBF20
:10456000B2F1004F704700280CBF491C20F0010039
:10457000704712EB020E43EB030218BF4FF0010E1F
:104580004EEA4202ACF1200CDCF11E0E54D943FA83
:104590000CFE10EB0E0051F1FF31CCF11E0ED5D503
:1045A0000EF1010E12FA0EFE404141EB010101EB4A
:1045B000445C5FEA5C5C10D910EBDE7001EB0451E7
:1045C00038BFBEF1004FBDE8104018BF704700284B
:1045D0000CBF491C20F00100704730D24FEAD42CA8
:1045E00011F5001124F400641BD0B1FA81F20B3AEA
:1045F000A41AA41ED2F12003914030FA03F3194308
:10460000904001EBCC71002C01EB0451BDE810404F
:10461000A8BF704701F1C0414FF0000001F0004118
:104620007047B0FA80F310FA03F100D110BDE41A1C
:10463000173C4805C90AE4E701EB045110BD4910D5
:1046400001EB0451BDE810404FEA300002E04FF0AA
:10465000000170474A0008BF0042F8D0B2F5001FC1
:1046600028BF704701F000414FF0000070479EEAFC
:10467000445F07D011EA5E0FBDE8104004BF00217F
:1046800000207047BDE8104070B5FFF789FE00BFFD
:1046900040DFF63E83F00041104670470000E0FF27
:1046A0004FF04070E1EE100A704700061016000649
:1046B00010160000000000000000010203040607BD
:1046C000080900000000010203040000EC46000895
:1046D0000000002098000000C40100088447000882
:1046E00098000020780B0000E001000800000000A6
:1046F0000000000065000000000000000000000055
:10470000000000000000090000000000000020433D
:104710000000000000000044000000000000000055
:104720000000000000000000000000000000000089
:104730000000000000000000000000000000000079
:104740000000000000000000000000000000000069
:104750000000000000000000000000000000000059
:104760000000000000000000000000000000000049
:104770000000000001000000100000000000000028
:044780000024F4001D
:040000050800018965
:00000001FF
